:100000000C9490140C94A1280C94D2280C940329DD
:100010000C9434290C9465290C9496290C94C729C6
:100020000C94F8290C94C1140C94C1140C94C114B0
:100030000C94C1140C94C1140C94C1140C94C114EC
:100040000C94C1140C94C1140C94C1140C94C114DC
:100050000C94C1140C94C1140C94C1140C94292A4E
:100060000C94C1140C94B12D0C94E72D0C94C11474
:100070000C94C1140C94C1140C94C1140C94C114AC
:100080000C94C1140C94C1140C94C1140C94C1149C
:100090000C94C1140C94C1140C94C1140C94F91F49
:1000A0000C94C1140C94C1140C94C1140C94C1147C
:1000B0000C94C1140C94C1140C94C1140C94C1146C
:1000C0000C94C1140C94C1140C94C1140C94C1145C
:1000D0000C94C1140C94C1140C94C1140C94C1144C
:1000E0000C94C1147B2845284D2859286628872858
:1000F0009428712B742B632B672B6D2BAB2B782BD8
:100100007C2B822B862B8A2B902B942B982BAB2B22
:100110009E2BA22BA62B07634236B79BD8A71A3972
:10012000685618AEBAAB558C1D3CB7CC5763BD6D45
:10013000EDFD753EF6177231BF000000803F0800EC
:100140000000BE922449123EABAAAA2ABECDCCCC56
:100150004C3E00000080BEABAAAAAA3E00000000F0
:10016000BF000000803F0000000000084178D3BBC2
:100170004387D1133D190E3CC3BD4282AD2B3E686F
:10018000EC8276BED98FE1A93E4C80EFFFBE01C460
:10019000FF7F3F0000000000485720436F6E6669F4
:1001A00067204F4B00307800526561646564203DE4
:1001B00020003078005772697474656E203D20000D
:1001C000416464726573733A2000206572726F72C5
:1001D0007320647572696E6720485720636F6E667E
:1001E000696720646F776E6C6F61640048572043C5
:1001F0006F6E66696720636865636B696E672E2E34
:100200002E0052656720506172616D204F4B0030A7
:100210007800526561646564203D200030780057A5
:1002200072697474656E203D200041646472657368
:10023000733A2000206572726F7273206475726960
:100240006E672052656720506172616D20646F7720
:100250006E6C6F616400506172616D6574657220CF
:10026000636865636B696E672E2E2E0050726F6730
:1002700072616D204F4B0030780052656164656497
:10028000203D20003078005772697474656E203DFF
:100290002000416464726573733A200020657272B5
:1002A0006F727320647572696E672050726F677227
:1002B000616D20646F776E6C6F61640050726F6760
:1002C00072616D20636865636B696E672E2E2E0008
:1002D000644200566F6C3A0025004D69783A004838
:1002E0007A00546F6E653A00250044726976653A6B
:1002F000005475626573637265616D657200425981
:1003000050415353005B48005B324A00456E636FB7
:100310006465722070756C7365733A20002A2A2A0E
:100320002A2A2A2A2A2A2A2A2A2A2A2A2A2A2A2A2D
:100330002A2A2A2A2A2A2A2A2A2A2A2A2A002A2051
:1003400020204149444120547562657363726561A0
:100350006D657220536B657463682020202A002A23
:100360002020205573657220636F6E74726F6C204D
:10037000696E7465726661636520202020202A0002
:100380002A2A2A2A2A2A2A2A2A2A2A2A2A2A2A2ACD
:100390002A2A2A2A2A2A2A2A2A2A2A2A2A2A2A2ABD
:1003A00000547562657363722E2056302E31004101
:1003B0006964612044535020426F780030780041D6
:1003C0006964612044535020636F6E74726F6C20B7
:1003D000776974682041524455494E4F00001C0013
:1003E00018080000060000A0AA000000000000801D
:1003F00000000000000001008000000080000000FC
:100400008000000121CAC1007F5CE60F80A31A00B2
:100410007EB9CC00800000FF8000000500000000D5
:1004200000000000000009008000000080000000C3
:100430000000000000000000800000FF800000FFBE
:10044000CA71ACFFCAA601FFCADD1EFFCB1750FF61
:10045000CB54F3FFCB966CFFCBDC48FFCC270FFFD0
:10046000CC778AFFCCCE89FFCD2D34FFCD94E2FF2F
:10047000CE0768FFCE871AFFCF170DFFCFBB8CFFCB
:10048000D07A9EFFD15CEAFFD26F48FFD3C505FF4B
:10049000D57A25FFD7B1E2FFDA86C6FFDDED29FF69
:1004A000E1B2C4FFE5A650FFE9AC36FFEDB8CCFFE2
:1004B000F1C7CEFFF5D799FFF9E7B0FFFDF7E800E8
:1004C00002081800061850000A2867000E3832008B
:1004D000124734001653CA001A59B0001E4D3C0092
:1004E0002212D70025793A00284E1E002A85DB000B
:1004F0002C3AFB002D90B8002EA316002F85620029
:100500003044740030E8F3003178E60031F89800A8
:10051000326B1E0032D2CC00333177003388760044
:1005200033D8F1003423B8003469940034AB0D00A3
:1005300034E8B0003522E2003559FF00358E540F03
:10054000C00000004000000000003F0080000000EC
:1005500000000000000000004026E7004026E70001
:10056000080E6D000000000077F19300800000008D
:100570000008000000000000000000000000000073
:10058000000000000000000000000000000000006B
:10059000000000000000000000000000000000005B
:1005A000000000000000000000000000000000004B
:1005B000000000000000000000000000000000003B
:1013F000000000000000000000000001000000E804
:10140000010000000001000800E801FFF2002001D7
:10141000001000E201FFF2012001001800E201FFCC
:10142000F2022001002000E2010011082001FEC8A4
:101430000002010019082001FF100002010021082C
:101440002001FF18000201000A032001003000E221
:10145000010000000001004A062001003A063401A4
:101460000032042201002A052201000000000100D0
:101470004000E201005000F2010041082001005844
:1014800000E201FFF20840010041082009000000CD
:101490000001005800E423FFF2072001004108404A
:1014A000090000000001005800E2230000000001D4
:1014B00000410820010000000001006000F0010070
:1014C0005A092001006800E20100000000010061EB
:1014D0000820010000000001009800F001008908C8
:1014E0002009009000E2010079082001FFF20B22A0
:1014F00067008000E2010099082249009908200154
:10150000008000E227FFF20A2001009000E227009D
:10151000000000010091082009FFF9082241009015
:1015200000E2260081082001007000E201006A0C40
:10153000200100B000E201000000000100000000F6
:1015400001007108200100A000E20100CA0F200183
:1015500000BA0F340100B20D220100AA0E220100D0
:101560000000000100C000E20100D000F20100C153
:1015700008200100D800E201FFF211400100C1087B
:101580002009000000000100D800E423FFF2102031
:101590000100C1084009000000000100D800E2235A
:1015A000000000000100DA532001FFF25222410046
:1015B000E800E20100EA542001000000000100F808
:1015C00000E201010000F20100F800C0010000008B
:1015D0000001000213A101FFE1082001000212A195
:1015E00001FFE108224100E000E201010000C0012A
:1015F00000E7FF2001FFE1082201011000E20101E4
:101600002A572001011A5734010112552201010AFB
:101610005622010000000001012000E2010130001B
:10162000F201FFF25820010139082241017800E25D
:10163000010149082001013908340101791422010E
:10164000014000E201014000C001015000F2010030
:1016500037FF4001FFF2592001015908224101786A
:1016600000E20101690820010159083401017914DF
:101670002201016000E201016000C001017000F27E
:10168000010127FF44010000000001018800E4017E
:1016900001A25C200101925C3401018A5A220101FD
:1016A000825B22010000000001019800E20101A814
:1016B00000F201FFF25D200101B908224101D800CA
:1016C000E20101C908200101B908340101DA5E22F2
:1016D0000101C000E20101C000C00101D000F2011F
:1016E000019FFF200101B000E201FFF25F20010233
:1016F0000000E20101B108200101E800E20100312F
:1017000008200101F000E201FFE908200102580071
:10171000E20101F90820010201082249FFF1082035
:1017200026025800E2010219082001FFF1132249A4
:1017300001F90820010239082025024000E20102D7
:1017400029082001FFF113224901F908200102496B
:10175000082025025000E20102610820010000007B
:101760000001027000F0010271082001FFF1132254
:10177000490259082001FFE9082025025800E2012A
:1017800001F9082001020000E225020908200102F7
:1017900019082241026800E20102190820010269C9
:1017A000142201022000E201024000C0010007FFF4
:1017B000A001022000C00101EFFF208101E000E252
:1017C00001FFF1082001FFF7FF2241023000E20192
:1017D000025000C0010007FFA001023000C001015B
:1017E000EFFF208101E108220101E000E20102098E
:1017F00008200102590822410000000001021000E7
:10180000F001000000000101E1082001FF68000272
:101810000101E1082001FF7000020101E10820013F
:10182000FF7800020101E1082001FF8000020100B1
:1018300000000001000000000100000000010000A5
:101840000000010000000001000000000100000095
:101850000001000000000100000000010000000085
:101860000100000000010000000001000000000174
:101870000000000001000000000100000000010065
:101880000000000100000000010000000001000055
:101890000000010000000001000000000100000045
:1018A0000001000000000100000000010000000035
:1018B0000100000000010000000001000000000124
:1018C0000000000001000000000100000000010015
:1018D0000000000100000000010000000001000005
:1018E00000000100000000010000000001000000F5
:1018F00000010000000001000000000100000000E5
:1019000001000000000100000000010000000001D3
:1019100000000000010000000001000000000100C4
:1019200000000001000000000100000000010000B4
:1019300000000100000000010000000001000000A4
:101940000001000000000100000000010000000094
:101950000100000000010000000001000000000183
:101960000000000001000000000100000000010074
:101970000000000100000000010000000001000064
:101980000000010000000001000000000100000054
:101990000001000000000100000000010000000044
:1019A0000100000000010000000001000000000133
:1019B0000000000001000000000100000000010024
:1019C0000000000100000000010000000001000014
:1019D0000000010000000001000000000100000004
:1019E00000010000000001000000000100000000F4
:1019F00001000000000100000000010000000001E3
:101A000000000000010000000001000000000100D3
:101A100000000001000000000100000000010000C3
:101A200000000100000000010000000001000000B3
:101A300000010000000001000000000100000000A3
:101A40000100000000010000000001000000000192
:101A50000000000001000000000100000000010083
:101A60000000000100000000010000000001000073
:101A70000000010000000001000000000100000063
:101A80000001000000000100000000010000000053
:101A90000100000000010000000001000000000142
:101AA0000000000001000000000100000000010033
:101AB0000000000100000000010000000001000023
:101AC0000000010000000001000000000100000013
:101AD0000001000000000100000000010000000003
:101AE00001000000000100000000010000000001F2
:101AF00000000000010000000001000000000100E3
:101B000000000001000000000100000000010000D2
:101B100000000100000000010000000001000000C2
:101B200000010000000001000000000100000000B2
:101B300001000000000100000000010000000001A1
:101B40000000000001000000000100000000010092
:101B50000000000100000000010000000001000082
:101B60000000010000000001000000000100000072
:101B70000001000000000100000000010000000062
:101B80000100000000010000000001000000000151
:101B90000000000001000000000100000000010042
:101BA0000000000100000000010000000001000032
:101BB0000000010000000001000000000100000022
:101BC0000001000000000100000000010000000012
:101BD0000100000000010000000001000000000101
:101BE00000000000010000000001000000000100F2
:101BF00000000001000000000100000000010000E2
:101C000000000100000000010000000001000000D1
:101C100000010000000001000000000100000000C1
:101C200001000000000100000000010000000001B0
:101C300000000000010000000001000000000100A1
:101C40000000000100000000010000000001000091
:101C50000000010000000001000000000100000081
:101C60000001000000000100000000010000000071
:101C70000100000000010000000001000000000160
:101C80000000000001000000000100000000010051
:101C90000000000100000000010000000001000041
:101CA0000000010000000001000000000100000031
:101CB0000001000000000100000000010000000021
:101CC0000100000000010000000001000000000110
:101CD0000000000001000000000100000000010001
:101CE00000000001000000000100000000010000F1
:101CF00000000100000000010000000001000000E1
:101D000000010000000001000000000100000000D0
:101D100001000000000100000000010000000001BF
:101D200000000000010000000001000000000100B0
:101D300000000001000000000100000000010000A0
:101D40000000010000000001000000000100000090
:101D50000001000000000100000000010000000080
:101D6000010000000001000000000100000000016F
:101D70000000000001000000000100000000010060
:101D80000000000100000000010000000001000050
:101D90000000010000000001000000000100000040
:101DA0000001000000000100000000010000000030
:101DB000010000000001000000000100000000011F
:101DC0000000000001000000000100000000010010
:101DD0000000000100000000010000000001000000
:101DE00000000100000000010000000001000000F0
:101DF00000010000000001000000000100000000E0
:101E000001000000000100000000010000000001CE
:101E100000000000010000000001000000000100BF
:101E200000000001000000000100000000010000AF
:101E3000000001000000000100000000010000009F
:101E4000000100000000010000000001000000008F
:101E5000010000000001000000000100000000017E
:101E6000000000000100000000010000000001006F
:101E7000000000010000000001000000000100005F
:101E8000000001000000000100000000010000004F
:101E9000000100000000010000000001000000003F
:101EA000010000000001000000000100000000012E
:101EB000000000000100000000010000000001001F
:101EC000000000010000000001000000000100000F
:101ED00000000100000000010000000001000000FF
:101EE00000010000000001000000000100000000EF
:101EF00001000000000100000000010000000001DE
:101F000000000000010000000001000000000100CE
:101F100000000001000000000100000000010000BE
:101F200000000100000000010000000001000000AE
:101F3000000100000000010000000001000000009E
:101F4000010000000001000000000100000000018D
:101F5000000000000100000000010000000001007E
:101F6000000000010000000001000000000100006E
:101F7000000001000000000100000000010000005E
:101F8000000100000000010000000001000000004E
:101F9000010000000001000000000100000000013D
:101FA000000000000100000000010000000001002E
:101FB000000000010000000001000000000100001E
:101FC000000001000000000100000000010000000E
:101FD00000010000000001000000000100000000FE
:101FE00001000000000100000000010000000001ED
:101FF00000000000010000000001000000000100DE
:1020000000000001000000000100000000010000CD
:1020100000000100000000010000000001000000BD
:1020200000010000000001000000000100000000AD
:10203000010000000001000000000100000000019C
:10204000000000000100000000010000000001008D
:10205000000000010000000001000000000100007D
:10206000000001000000000100000000010000006D
:10207000000100000000010000000001000000005D
:10208000010000000001000000000100000000014C
:10209000000000000100000000010000000001003D
:1020A000000000010000000001000000000100002D
:1020B000000001000000000100000000010000001D
:1020C000000100000000010000000001000000000D
:1020D00001000000000100000000010000000001FC
:1020E00000000000010000000001000000000100ED
:1020F00000000001000000000100000000010000DD
:1021000000000100000000010000000001000000CC
:1021100000010000000001000000000100000000BC
:1021200001000000000100000000010000000001AB
:10213000000000000100000000010000000001009C
:10214000000000010000000001000000000100008C
:10215000000001000000000100000000010000007C
:10216000000100000000010000000001000000006C
:10217000010000000001000000000100000000015B
:10218000000000000100000000010000000001004C
:10219000000000010000000001000000000100003C
:1021A000000001000000000100000000010000002C
:1021B000000100000000010000000001000000001C
:1021C000010000000001000000000100000000010B
:1021D00000000000010000000001000000000100FC
:1021E00000000001000000000100000000010000EC
:1021F00000000100000000010000000001000000DC
:1022000000010000000001000000000100000000CB
:1022100001000000000100000000010000000001BA
:1022200000000000010000000001000000000100AB
:10223000000000010000000001000000000100009B
:10224000000001000000000100000000010000008B
:10225000000100000000010000000001000000007B
:10226000010000000001000000000100000000016A
:10227000000000000100000000010000000001005B
:10228000000000010000000001000000000100004B
:10229000000001000000000100000000010000003B
:1022A000000100000000010000000001000000002B
:1022B000010000000001000000000100000000011A
:1022C000000000000100000000010000000001000B
:1022D00000000001000000000100000000010000FB
:1022E00000000100000000010000000001000000EB
:1022F00000010000000001000000000100000000DB
:1023000001000000000100000000010000000001C9
:1023100000000000010000000001000000000100BA
:1023200000000001000000000100000000010000AA
:10233000000001000000000100000000010000009A
:10234000000100000000010000000001000000008A
:102350000100000000010000000001000000000179
:10236000000000000100000000010000000001006A
:10237000000000010000000001000000000100005A
:10238000000001000000000100000000010000004A
:10239000000100000000010000000001000000003A
:1023A0000100000000010000000001000000000129
:1023B000000000000100000000010000000001001A
:1023C000000000010000000001000000000100000A
:1023D00000000100000000010000000001000000FA
:1023E00000010000000001000000000100000000EA
:1023F00001000000000100000000010000000001D9
:1024000000000000010000000001000000000100C9
:1024100000000001000000000100000000010000B9
:1024200000000100000000010000000001000000A9
:102430000001000000000100000000010000000099
:102440000100000000010000000001000000000188
:102450000000000001000000000100000000010079
:102460000000000100000000010000000001000069
:102470000000010000000001000000000100000059
:102480000001000000000100000000010000000049
:102490000100000000010000000001000000000138
:1024A0000000000001000000000100000000010029
:1024B0000000000100000000010000000001000019
:1024C0000000010000000001000000000100000009
:1024D00000010000000001000000000100000000F9
:1024E00001000000000100000000010000000001E8
:1024F00000000000010000000001000000000100D9
:1025000000000001000000000100000000010000C8
:1025100000000100000000010000000001000000B8
:1025200000010000000001000000000100000000A8
:102530000100000000010000000001000000000197
:102540000000000001000000000100000000010088
:102550000000000100000000010000000001000078
:102560000000010000000001000000000100000068
:102570000001000000000100000000010000000058
:102580000100000000010000000001000000000147
:102590000000000001000000000100000000010038
:1025A0000000000100000000010000000001000028
:1025B0000000010000000001000000000100000018
:1025C0000001000000000100000000010000000008
:1025D00001000000000100000000010000000001F7
:1025E00000000000010000000001000000000100E8
:1025F00000000001000000000100000000010000D8
:1026000000000100000000010000000001000000C7
:1026100000010000000001000000000100000000B7
:1026200001000000000100000000010000000001A6
:102630000000000001000000000100000000010097
:102640000000000100000000010000000001000087
:102650000000010000000001000000000100000077
:102660000001000000000100000000010000000067
:102670000100000000010000000001000000000156
:102680000000000001000000000100000000010047
:102690000000000100000000010000000001000037
:1026A0000000010000000001000000000100000027
:1026B0000001000000000100000000010000000017
:1026C0000100000000010000000001000000000106
:1026D00000000000010000000001000000000100F7
:1026E00000000001000000000100000000010000E7
:1026F00000000100000000010000000001000000D7
:1027000000010000000001000000000100000000C6
:1027100001000000000100000000010000000001B5
:1027200000000000010000000001000000000100A6
:102730000000000100000000010000000001000096
:102740000000010000000001000000000100000086
:102750000001000000000100000000010000000076
:102760000100000000010000000001000000000165
:102770000000000001000000000100000000010056
:102780000000000100000000010000000001000046
:102790000000010000000001000000000100000036
:1027A0000001000000000100000000010000000026
:1027B0000100000000010000000001000000000115
:1027C0000000000001000000000100000000010006
:1027D00000000001000000000100000000010000F6
:1027E00000000100000000010000000001000000E6
:1027F00000010000000001001800000A0B02090C93
:102800000D0E080703040100000000000000000096
:1028100000000000000000000000000000000000B8
:102820000000000000121110000000000000000075
:102830000000000000000000000000000000000197
:1028400002102020080810204010204080020102C1
:102850000108040201010204081020408080402089
:1028600010080402018004020180402010080402C4
:102870000108040201010204081020408001020442
:10288000081020408005050505070508080808020E
:102890000202020A0A0808040404040101010101F9
:1028A0000101010303030303030303040707070CE8
:1028B0000C0C0C0C0C0C0C0202020206060606069E
:1028C0000606060B0B0B0B0B0B0B0B00002000235B
:1028D00000260029002C002F003200000100000318
:1028E000010601090100002200250028002B002E0E
:1028F000003100340002010000050108010B010055
:10290000002100240027002A002D003000330001A0
:10291000010000040107010A01007A1DB01E192EF2
:1029200011241FBECFEFD1E2DEBFCDBF00E00CBF50
:1029300012E0A0E0B2E0EEE2F9E600E00BBF02C078
:1029400007900D92A234B107D9F724E0A2E4B2E0D7
:1029500001C01D92A33CB207E1F719E2C0E2D9E23F
:1029600000E006C022970109FE010BBF0E948234DD
:10297000CA31D10780E00807A9F70E945D2E0C94A8
:1029800095340C940000DC01ED91FC910190F081F4
:10299000E02D199427EF37E242E050E06CE178E057
:1029A00086E30E943E2627EF33E140E054E160E0F9
:1029B00074E086E30E943E2627EF33E040E050E1DA
:1029C00060E070E086E30E943E262FED33E048E1B0
:1029D00050E06CE178E086E30E943E262DED33E086
:1029E00042E050E06CE178E086E30C943E261F93D1
:1029F000CF93DF93D6E0C0E011E0C1276C2F8DE0CC
:102A00000E94E52B6C2F87E10E94E52B6C2F89E15A
:102A10000E94E52B6AEF70E080E090E00E94A22A1D
:102A2000D15059F761E08DE00E94E52B61E087E12C
:102A30000E94E52B61E089E1DF91CF911F910C9419
:102A4000E52B6BE170E086E294E09DDF68E073E0E7
:102A500086E294E00E94A72E6BE170E086E294E0AB
:102A600092DF65E073E086E294E00C94A72E87E4A1
:102A700092E00E94462740E060E087E492E00E94F6
:102A80004B2780913003882319F06EEF72E072C0FB
:102A900061EF72E087E492E00E94A72E41E060E0DF
:102AA00087E492E00E944B27809132038130F1F05D
:102AB00030F0823091F1833009F446C008956AEE17
:102AC00072E087E492E00E94A72E40911803509193
:102AD000190360911A0370911B0321E030E087E431
:102AE00092E00E94CA3068EE72E044C062EE72E08A
:102AF00087E492E00E94A72E4091140350911503A1
:102B0000609116037091170322E030E087E492E0B1
:102B10000E94CA306FED72E02DC06AED72E087E46A
:102B200092E00E94A72E40911003509111036091F2
:102B300012037091130321E030E087E492E00E94D9
:102B4000CA3068ED72E016C063ED72E087E492E08F
:102B50000E94A72E40910C0350910D0360910E032B
:102B600070910F0322E030E087E492E00E94CA30C7
:102B700060ED72E087E492E00C94A72ECF93C82F0B
:102B8000809146028C17B1F0C13041F442E06FE50C
:102B900070E086E30E94A12461E007C041E06FE598
:102BA00070E086E30E94A12460E089E10E94E52BA9
:102BB000C0934602CF9108958F929F92AF92BF9299
:102BC000CF92DF92EF92FF926B017C019B01AC01EF
:102BD00060914202709143028091440290914502BB
:102BE0000E943131882309F440C020E030E0A9017F
:102BF000C701B6010E943131882389F020E030E01E
:102C000040E251E4C701B6010E94353120E030E0D6
:102C100040E85FE30E94CD304B015C0106C0812C8F
:102C2000912C80E8A82E8FE3B82E20E030E040E21F
:102C300051E469E070E086E30E94592584E690E063
:102C40000E94C72AA50194016CE070E086E30E940F
:102C5000592584E690E00E94C72AC0924202D09291
:102C60004302E0924402F0924502FF90EF90DF9021
:102C7000CF90BF90AF909F908F900895CF92DF92AA
:102C8000EF92FF920F931F936B017C0120E030E0E5
:102C9000A9010E943131882391F120E030E048EC15
:102CA00052E4C701B6010E948032181634F4C12CD8
:102CB000D12C98ECE92E92E4F92E20E030E048EC9B
:102CC00052E4C701B6010E9435316B017C019B01C2
:102CD000AC0160E070E080E89FE30E94CC308B01A3
:102CE0009C0140E068E570E086E30E9402259701C0
:102CF000860141E069E570E086E30E9402251F91AC
:102D00000F91FF90EF90DF90CF900895CF92DF92D8
:102D1000EF92FF920F931F9386E30E94332B9093C1
:102D20008B0280938A026C01E12CF12C06E0CC0C22
:102D3000DD1CEE1CFF1C0A95D1F720918602309114
:102D400087024091880250918902AFE3B0E00E946F
:102D50007834C60ED71EE81EF91ED701C60126E03C
:102D6000B695A795979587952A95D1F78093860272
:102D700090938702A0938802B0938902D701C6017D
:102D80003CE0B695A795979587953A95D1F78093AE
:102D9000820290938302A0938402B0938502909361
:102DA0009B0280939A02609198027091990244E08C
:102DB00050E00E940624811120C01092320300913D
:102DC0009A0210919B0220E030E048EC52E460E06F
:102DD00070E0CB010E940B236093180370931903DA
:102DE00080931A0390931B03E7DE80919A029091DF
:102DF0009B02909399028093980287E30E94332B61
:102E000090938102809380026C01E12CF12CE6E02A
:102E1000CC0CDD1CEE1CFF1CEA95D1F720917C0246
:102E200030917D0240917E0250917F02AFE3B0E08D
:102E30000E947834C60ED71EE81EF91ED701C601BF
:102E4000F6E0B695A79597958795FA95D1F7809373
:102E50007C0290937D02A0937E02B0937F02D70103
:102E6000C6011CE0B695A795979587951A95D1F759
:102E70008093780290937902A0937A02B0937B02B8
:102E800090939702809396026091940270919502BC
:102E900044E050E00E940624811130C081E080931C
:102EA0003203009196021091970220E030EA42E846
:102EB00055E460E070E086E494E40E940B236093A4
:102EC0001403709315038093160390931703609374
:102ED000010370930203809303039093040341EF73
:102EE00052E06AE570E086E30E946B2580919602CD
:102EF00090919702909395028093940288E30E94A8
:102F0000332B90937702809376026C01E12CF12CA5
:102F100056E0CC0CDD1CEE1CFF1C5A95D1F720911D
:102F20007202309173024091740250917502AFE3C6
:102F3000B0E00E947834C60ED71EE81EF91ED701F5
:102F4000C60166E0B695A795979587956A95D1F7DE
:102F50008093720290937302A0937402B0937502EF
:102F6000D701C6017CE0B695A795979587957A9588
:102F7000D1F780936E0290936F02A0937002B0938A
:102F800071029093930280939202609190027091EB
:102F9000910244E050E00E940624811108C0809113
:102FA000920290919302909391028093900289E310
:102FB0000E94332B90936D0280936C026C01E12C84
:102FC000F12C26E0CC0CDD1CEE1CFF1C2A95D1F761
:102FD000209168023091690240916A0250916B021F
:102FE000AFE3B0E00E947834C60ED71EE81EF91E8B
:102FF000D701C60136E0B695A795979587953A957E
:10300000D1F78093680290936902A0936A02B0930B
:103010006B02D701C6014CE0B695A79597958795A9
:103020004A95D1F78093640290936502A09366025B
:10303000B093670290938F0280938E0260918C020E
:1030400070918D0244E050E00E940624811108C076
:1030500080918E0290918F0290938D0280938C02CA
:1030600084E00E941A2C892BA9F461E08DE00E9473
:10307000E52B62E370E080E090E00E94A22A84E009
:103080000E941A2C892BE9F4809163028F5F809350
:10309000630217C0809163029FEF980F993010F47C
:1030A00081E004C08B50833120F482E0809362027F
:1030B00002C0109262021092630260E08DE00E94F2
:1030C000E52B80916202813049F4809132038F5F59
:1030D00080933203843011F41092320382E10E9413
:1030E0001A2C892BD9F462E370E080E090E00E9412
:1030F000A22A82E10E941A2C892B91F4809161020C
:10310000813071F081E08093610210929C021092F4
:103110009D0210929E0210929F0202C010926102C4
:1031200083E10E941A2C892BC1F462E370E080E0F5
:1031300090E00E94A22A83E10E941A2C892B79F444
:1031400080916002813059F091E09093600280910B
:10315000300389278093300302C0109260020E94DE
:10316000732A60932C0370932D0380932E03909306
:103170002F03C0902803D0902903E0902A03F090F9
:103180002B03DC01CB018C199D09AE09BF098A3FD5
:103190009105A105B10508F4D9C053DC60E873E0DE
:1031A00086E294E00E94E52E6FE573E086E294E00B
:1031B0000E94E52E6EE373E086E294E00E94E52E25
:1031C0006DE173E086E294E00E94E52E6AE070E033
:1031D00086E294E0D8DB6CE073E086E294E00E9443
:1031E000A72E0E944524AB01BC012AE030E086E214
:1031F00094E00E94A92F6AE070E086E294E0C3DBCD
:1032000080915F028F5F80935F02843049F420E0F9
:1032100042E060E187E492E00E94632710925F023F
:1032200080913003ABDC8091320390913103981789
:1032300029F091E09093000280933103823019F0DD
:10324000833081F172C080910002882361F0109276
:10325000000260910102709102028091030290913C
:1032600004020E944E240E94452460930102709340
:10327000020280930302909304027B018C0120E000
:1032800030E048EC52E460E070E0CB010E94C721DE
:1032900060931003709311038093120390931303B0
:1032A000EDDC43C080910002882361F0109200029F
:1032B00060911C0370911D0380911E0390911F0368
:1032C0000E944E240E94452460931C0370931D03AA
:1032D00080931E0390931F037B018C0120E030E05C
:1032E00040EC50E460E070E080EA92EC0E94C7217C
:1032F00060930C0370930D0380930E0390930F0360
:1033000020E030E040EA51E40E9435319B01AC01FD
:1033100060E070E080E291E40E94E7329B01AC0142
:103320006DE570E086E30E946225A1DB80912C03AD
:1033300090912D03A0912E03B0912F038093280329
:1033400090932903A0932A03B0932B031F910F910D
:10335000FF90EF90DF90CF9008952DED33E042E0A5
:1033600050E06CE178E086E30C943E269F92AF92A9
:10337000BF92CF92DF92EF92FF920F931F93CF9362
:10338000DF9300D01F921F92CDB7DEB76CEB72E0D7
:1033900086E294E00E94E52EE12CF12C00E014E09E
:1033A00045E0A42ECE0101966C01F6018A2D119202
:1033B0008A95E9F7960145E0B80186E30E94642604
:1033C000D60180E090E0970129503C4EF901E80FCA
:1033D000F91F9490BD909B1409F442C04AE050E05C
:1033E00061E070E086E294E00E94DA2F6CE972E01E
:1033F00086E294E00E94E52E62E972E086E294E0C3
:103400000E94A72E4AE050E0B80186E294E00E94B4
:10341000DF2F67E872E086E294E00E94A72E64E85E
:1034200072E086E294E00E94A72E40E150E0692D10
:1034300086E294E00E94C52F6AE772E086E294E09B
:103440000E94A72E67E772E086E294E00E94A72E12
:1034500040E150E06B2D86E294E00E94C52F2AC027
:1034600001968530910509F0B1CF0F5F1F4F84E6BB
:1034700090E00E94C72A95E0E90EF11CE114E4E116
:10348000FE0609F092CF6CE672E086E294E00E94BC
:10349000E52E0F900F900F900F900F90DF91CF912E
:1034A0001F910F91FF90EF90DF90CF90BF90AF9062
:1034B0009F900895FFCFCF92DF92EF92FF920F93EC
:1034C0001F93CF93DF9300D01F92CDB7DEB766E591
:1034D00072E086E294E00E94E52EE12CF12C00E0FF
:1034E00010E019821A821B821C829E012F5F3F4FBF
:1034F00044E0B80186E30E946426DE01119680E074
:1035000090E0970129503C4FF901E80FF91FD49042
:10351000CD90009719F44D2D4F70D42EDC1409F482
:1035200042C04AE050E061E070E086E294E00E9430
:10353000DA2F64E372E086E294E00E94E52E6AE20C
:1035400072E086E294E00E94A72E4AE050E0B801C3
:1035500086E294E00E94DF2F6FE172E086E294E061
:103560000E94A72E6CE172E086E294E00E94A72EF2
:1035700040E150E06D2D86E294E00E94C52F62E1AB
:1035800072E086E294E00E94A72E6FE072E086E28D
:1035900094E00E94A72E40E150E06C2D86E294E07A
:1035A0000E94C52F26C001968430910509F0ACCF4A
:1035B0000F5F1F4F84E690E00E94C72A84E0E80E68
:1035C000F11CE11440E1F40609F08BCF62E072E0F7
:1035D00086E294E00E94E52E0F900F900F900F90DE
:1035E000DF91CF911F910F91FF90EF90DF90CF90DF
:1035F0000895FFCF0F931F93CF93DF93CDB7DEB71F
:1036000068970FB6F894DEBF0FBECDBF6CEE71E0C9
:1036100086E294E00E94E52E8E010F5F1F4F88E145
:10362000F80111928A95E9F7980148E16CE178E098
:1036300086E30E946426EFEDF3E0D80104911D912A
:10364000011316C0319683E0E73FF807B9F768E940
:1036500071E086E294E00E94E52E68960FB6F89439
:10366000DEBF0FBECDBFDF91CF911F910F910895A7
:103670004AE050E061E070E086E294E00E94DA2FD8
:103680006AEC71E086E294E00E94E52E60EC71E065
:1036900086E294E00E94A72E4AE050E06CE178E0D8
:1036A00086E294E00E94DF2F65EB71E086E294E011
:1036B0000E94A72E62EB71E086E294E00E94A72EA2
:1036C00040E150E0602F86E294E00E94C52F68EA56
:1036D00071E086E294E00E94A72E65EA71E086E23E
:1036E00094E00E94A72E40E150E0612F86E294E032
:1036F0000E94C52FFFCFEF92FF920F931F93CF939E
:10370000DF9361E08DE00E94AC2B61E087E10E94D5
:10371000AC2B61E087E10E94E52B61E089E10E942A
:10372000AC2B61E089E10E94E52B62E082E10E941E
:10373000AC2B62E083E10E94AC2B26E040E052EC2F
:1037400061E070E086E294E00E94512D7AD96FEB3F
:1037500073E086E294E00E94E52E6CEB73E086E273
:1037600094E00E94A72E40E150E06CE670E086E213
:1037700094E00E94932F20E042E060E187E492E031
:103780000E94632740E060E087E492E00E944B27BC
:103790006FEA73E087E492E00E94A72E41E060E0C8
:1037A00087E492E00E944B2761EA73E087E492E0AD
:1037B0000E94A72E0E94152461E08BE00E94E52B59
:1037C00064E670E080E090E00E94A22AE3D864E121
:1037D00070E080E090E00E94A22AC8DD65E070E021
:1037E00080E090E00E94A22A66DE65E070E080E062
:1037F00090E00E94A22AFEDE62E070E080E090E0AD
:103800000E94A22AF4D8E0902403F09025030091AE
:1038100026031091270320E030E048EC52E460E0FA
:1038200070E0CB01B4D560931803709319038093B3
:103830001A0390931B03E0902003F0902103009162
:1038400022031091230320E030EA42E855E460E0CF
:1038500070E086E494E49BD56093140370931503A1
:103860008093160390931703E0900102F0900202F8
:10387000009103021091040220E030E048EC52E491
:1038800060E070E0CB0183D5609310037093110367
:103890008093120390931303E0901C03F0901D0398
:1038A00000911E0310911F0320E030E040EC50E433
:1038B00060E070E080EA92EC6AD560930C0370934C
:1038C0000D0380930E0390930F0320E635EE40E145
:1038D00050E463E070E086E30E94592584E690E0BE
:1038E0000E94C72A80E090E0A0E8BFE38093E20254
:1038F0009093E302A093E402B093E50286E696EE8D
:10390000A9E1B3E48093E6029093E702A093E80272
:10391000B093E90285E08093EE021092EF02C1E0DD
:10392000C093F00246ED52E064E070E086E30E944E
:103930006B2584E690E00E94C72AE12CF12C00E878
:103940001FEB20E030E040E85FE367E070E086E3F3
:103950000E94C62484E690E00E94C72A6091180362
:103960007091190380911A0390911B0325D984E665
:1039700090E00E94C72A1092C7021092C8021092CB
:10398000C9021092CA0280E090E8ABEBB5E48093E4
:10399000CB029093CC02A093CD02B093CE02D4E0A0
:1039A000D093D3021092D402C093D5024BEB52E0D5
:1039B0006DE070E086E30E946B2584E690E00E9453
:1039C000C72A20E030E040E85FE360E170E086E392
:1039D000DDD784E690E00E94C72A1092AC021092D4
:1039E000AD021092AE021092AF0280E090E8ABEB15
:1039F000B6E48093B0029093B102A093B202B09368
:103A0000B302D093B8021092B9021092BA0240EAFF
:103A100052E065E570E086E30E946B2584E690E065
:103A20000E94C72A1092FD021092FE021092FF021D
:103A3000109200038091140390911503A091160336
:103A4000B09117038093010390930203A0930303A3
:103A5000B0930403D093090310920A03C0930B039D
:103A600041EF52E06AE570E086E30E946B2584E650
:103A700090E00E94C72A6091100370911103809119
:103A8000120390911303FAD884E690E00E94C72AAB
:103A900020E030E040EA51E460910C0370910D03A6
:103AA00080910E0390910F030E9435319B01AC0170
:103AB00060E070E080E291E40E94E7329B01AC019B
:103AC0006DE570E086E3FED784E690E00E94C72AA9
:103AD00044DC1092300341E06FE570E086E331D7BB
:103AE00060E089E1DF91CF911F910F91FF90EF90FE
:103AF0000C94E52BCF92EF920F9367E0C62E76E001
:103B0000E72E0EE02FE040E161E187E492E00E94C1
:103B100006280F91EF90CF900895CA01409140037D
:103B2000442379F030934503209344037093480372
:103B300060934703909342038093410321E02093D5
:103B40003F03089580916A0390E020916B03821BEC
:103B50009109089520916B0380916A03281750F40E
:103B6000E22FF0E0E459FC4F808190E02F5F20933A
:103B70006B0308958FEF9FEF0895E0916B038091A1
:103B80006A03E81730F4F0E0E459FC4F808190E0DC
:103B900008958FEF9FEF08950895CF92DF92EF92EF
:103BA000FF920F931F93CF93DF937C01CB018A0188
:103BB00020914003222389F0EB016B01C40ED51E36
:103BC000CC15DD0561F06991D701ED91FC91019073
:103BD000F081E02DC7011995F3CF642FE1D1C80121
:103BE000DF91CF911F910F91FF90EF90DF90CF90D9
:103BF0000895CF93DF931F92CDB7DEB769832091ED
:103C000040032223D1F020914303203240F021E0F1
:103C100030E0FC013383228380E090E014C0809187
:103C20004603E82FF0E0E75BFC4F998190838F5FBC
:103C3000809346038093430304C061E0CE01019664
:103C4000AFD181E090E00F90DF91CF910895FC011A
:103C50001382128248EE53E060E070E044835583A3
:103C6000668377838EE092E091838083089510923B
:103C70006B0310926A031092460310924303109252
:103C800042031092410310924503109244036BC00B
:103C90009A01AB0160E074E284EF90E00E9450343E
:103CA0002051310941095109569547953795279576
:103CB0002093B8000895862F413208F040E26CE668
:103CC00073E07FD010926B0380936A03089521E024
:103CD000F2CF81E080934003609369031092460322
:103CE0001092430310924203109241031092450335
:103CF000109244030895EF920F9380913F0388231D
:103D0000A9F0209141033091420340914703509123
:103D100048038091440390914503E62E01E0BC01E5
:103D200080916903E7D010923F0309C0062F21E07C
:103D30004091430369E473E08091690386D0109257
:103D400046031092430310924503109244031092CD
:103D5000420310924103109240030F91EF90089597
:103D600083E393E074CF1092030481E08093000416
:103D70001092FF03109202041092D7031092D60300
:103D80001092D4031092D3031092D2031092D10355
:103D90001092D00361E084E10E94E52B61E085E1AF
:103DA0000E94E52BE9EBF0E080818E7F80838081AB
:103DB0008D7F808388E48093B80085E48093BC0085
:103DC0000895413208F03FC0909103049111FCCF57
:103DD00091E090930304209300042FEF20938C0331
:103DE0001092D803240F2093D5039093010490914F
:103DF0000104880F892B809301048091FF03813097
:103E000041F41092FF03809101048093BB0085EC84
:103E100001C085EE8093BC00809103048130E1F302
:103E20008091D803841710F44091D8032BED33E030
:103E3000FB01D9018A2F821B841718F48D9181937D
:103E4000F9CF842F089580E008950F93413208F050
:103E500048C0909103049111FCCF1092020492E0AB
:103E600090930304009300049FEF90938C031092AF
:103E7000D8034093D503FB016BED73E0DB019A2F70
:103E8000961B941718F491919D93F9CF1092010409
:103E900090910104880F892B809301048091FF0386
:103EA000813041F41092FF03809101048093BB00A4
:103EB00085EC01C085EE8093BC00222321F0809127
:103EC00003048230E1F380918C038F3F61F0809195
:103ED0008C03803251F080918C03803341F483E075
:103EE00007C081E005C080E003C082E001C084E03B
:103EF0000F910895EF920F93909103049111FCCFCD
:103F000092E09093030491E090930204E092000405
:103F10009FEF90938C031092D7031092D603709367
:103F2000D2036093D1033093D4032093D303109230
:103F3000D0035093DA034093D90310920104909177
:103F40000104880F892B809301048091FF03813045
:103F500041F41092FF03809101048093BB0085EC33
:103F600001C085EE8093BC00002321F08091030402
:103F70008230E1F380918C038F3F51F080918C036C
:103F8000803241F080918C03803331F483E005C0AE
:103F900080E003C082E001C084E00F91EF900895BB
:103FA000613298F420910304243089F46093AE03C5
:103FB000FC0180EB93E0DC012A2F281B261718F464
:103FC00021912D93F9CF80E0089581E0089582E05A
:103FD000089585ED8093BC008091BC0084FDFCCFEA
:103FE00010920304089585EC8093BC0010920304A2
:103FF00008951F920F920FB60F9211240BB60F92D5
:104000002F933F934F935F936F937F938F939F93E0
:10401000AF93BF93EF93FF938091B900887F803671
:1040200009F4EEC068F5883209F45BC090F4803181
:1040300009F454C038F4882309F445C1883009F4E0
:104040004DC044C1883109F44CC0803209F4AFC07E
:104050003DC1803409F4BAC048F4803309F4A7C0E4
:10406000883309F033C180938C03F9C0803509F49B
:10407000A1C0883509F4AFC0883409F027C125C133
:10408000883909F416C1A8F4883709F4B9C038F49E
:10409000883609F4B5C0803709F4B2C017C1883832
:1040A00009F407C1803909F4B1C0803809F00EC1A4
:1040B000ADC0803B09F4D5C038F4803A09F4B8C0EB
:1040C000883A09F4CEC002C1803C09F4F6C0883CAD
:1040D00009F4F3C0883B09F4D9C0F8C08091010409
:1040E00015C080910204811115C09091D803809170
:1040F000D503981708F07BC0E091D80381E08E0FBC
:104100008093D803F0E0E552FC4F80818093BB00A0
:1041100085ECD0C040910204413009F0D7C0209115
:10412000D6033091D7038091D3039091D4032817FD
:104130003907B0F58091D0038230D8F48091D00354
:10414000811107C08091D1039091D2039093BB005D
:104150000AC08091D003813031F48091D1039091D5
:10416000D2038093BB008091D0038F5F8093D003F4
:10417000CFCFE091D903F091DA03CF01019690936C
:10418000DA038093D903E491E093BB008091D603D6
:104190009091D70301969093D7038093D603B8CF1D
:1041A00080910004811191C04093FF0327C0809348
:1041B0008C038BC0E091D80381E08E0F8093D803ED
:1041C0008091BB00F0E0E552FC4F80839091D803D2
:1041D0008091D5036BC0E091D80381E08E0F80936E
:1041E000D8038091BB00F0E0E552FC4F80838091C2
:1041F000000481116AC081E08093FF0384EA5EC0FD
:1042000083E08093030410928D0382CF80918D030D
:10421000803208F04EC0E0918D0381E08E0F8093D4
:104220008D038091BB00F0E0E257FC4F808370CF9C
:1042300080918D03803230F4E0918D03F0E0E257FD
:10424000FC4F1082C6DE60918D0370E0E091FB03AD
:10425000F091FC038EE893E0199510928D03C3DE74
:1042600035C084E0809303041092AF031092AE0334
:10427000E091FD03F091FE0319958091AE03811149
:1042800005C081E08093AE031092B003E091AF03CC
:1042900081E08E0F8093AF03F0E0E055FC4F80810A
:1042A0008093BB009091AF038091AE03981708F400
:1042B0002FCF85E88093BC0009C085EC8093BC00BB
:1042C0001092030403C010928C0383DEFF91EF91E0
:1042D000BF91AF919F918F917F916F915F914F911E
:1042E0003F912F910F900BBE0F900FBE0F901F901C
:1042F000189583E00E941A2C8093080482E00E94A3
:104300001A2C809307048091060480930504809101
:10431000080490910704880F892B809306049091DC
:104320000604809105048927833081F19091060469
:1043300080910504981301C008958091050490911F
:10434000060481709695917089130CC080910904C0
:1043500090910A04A0910B04B0910C040197A1095B
:10436000B1090BC08091090490910A04A0910B043B
:10437000B0910C040196A11DB11D80930904909386
:104380000A04A0930B04B0930C04089508952F928F
:104390003F924F925F926F927F928F929F92AF92D5
:1043A000BF92CF92DF92EF92FF920F931F93CF9322
:1043B000DF93762E872E982EA92EB22ED32FC42FC0
:1043C000652E6701780120E030E0A9010E943131BB
:1043D00087FF41C020E030E0A9016B2D7D2F8C2F9D
:1043E000962D0E9431311816B4F1F7FEF7C06627FA
:1043F0007727CB016C197D098E099F090E94D03166
:104400006B017C012B2D3D2F4C2F562D672D782DC8
:10441000892D9A2D0E94CC309B01AC01C701B601B9
:104420000E9484326B017C0160910502709106024A
:1044300080910702909108020E94D0319B01AC014B
:10444000C701B6010E9435312B2D3D2F4C2F562D23
:104450000E94CD30B7C020E030E0A901672D782D53
:10446000892D9A2D0E94803287FD3CC020E030E0EB
:10447000A9016B2D7D2F8C2F962D0E94803218164E
:104480008CF5F7FC78C0C701B6010E94D0316B01F2
:104490007C01272D382D492D5A2D6B2D7D2F8C2FEA
:1044A000962D0E94CC301B012C0160910502709169
:1044B000060280910702909108020E94D0319B0170
:1044C000AC01C201B1010E9435319B01AC01C701B1
:1044D000B6010E948432272D382D492D5A2D0E9475
:1044E000CD303DC020E030E0A901672D782D892D29
:1044F0009A2D0E94313187FF77C020E030E0A9017A
:104500006B2D7D2F8C2F962D0E94803218160CF06B
:104510006BC0F7FC34C0C114D104E104F10409F408
:104520005FC0C701B6010E94D0316B017C01609170
:1045300005027091060280910702909108020E9484
:10454000D0319B01AC016B2D7D2F8C2F962D0E94BD
:1045500035319B01AC01C701B6010E948432762E31
:10456000872E982EA92E2B2D3D2F4C2F562D0E9495
:10457000803218169CF1B72CD82DC92D35C066276E
:104580007727CB016C197D098E099F090E94D031D4
:104590006B017C0160910502709106028091070217
:1045A000909108020E94D0319B01AC01672D782DBB
:1045B000892D9A2D0E9435319B01AC01C701B601AE
:1045C0000E948432B62ED72FC82F692E272D382D62
:1045D000492D5A2D0E94313187FDCDCFA62C04C024
:1045E000B12CD0E0C0E0A12C6B2D7D2F8C2F9A2D0B
:1045F000DF91CF911F910F91FF90EF90DF90CF90BF
:10460000BF90AF909F908F907F906F905F904F90F2
:104610003F902F9008954F925F926F927F928F926A
:104620009F92AF92BF92CF92DF92EF92FF920F9341
:104630001F93CF93DF9300D01F92CDB7DEB76B01EE
:104640007C0149015A0120E030E0A9010E9431318A
:1046500087FF3EC020E030E0A901C501B4010E94FF
:1046600031311816ACF1B80180E090E00E94CE31F3
:1046700069837A838B839C8320E030E0A901C701A2
:10468000B6010E94803226013701181624F077FA0D
:10469000709477F8709420E030E0A901C501B4016E
:1046A0000E948032A501940118160CF05058C301E5
:1046B000B2010E94CC3020E030E040E85AE30E9492
:1046C00084329B01AC0169817A818B819C8129C0F4
:1046D00020E030E0A901C701B6010E94803287FDC9
:1046E00027C020E030E0A901C501B4010E9480325A
:1046F0001816F4F4B80180E090E00E94CE312B014E
:104700003C01A7019601C501B4010E94CC309B0178
:10471000AC01C301B2010E94843220E030E040E8E5
:104720005AE30E948432A70196010E94CD3051C005
:1047300020E030E0A901C701B6010E94313187FFB6
:104740004CC020E030E0A901C501B4010E948032D4
:1047500018160CF042C0B80180E090E00E94CE3103
:104760002B013C0120E030E040E054E40E94803224
:1047700087FD17C020E030E040E054E4C301B201FF
:104780000E94CC306B017C0120E030E040E05BE334
:10479000C501B4010E9484329B01AC01C701B6017E
:1047A00016C0A301920160E070E080E094E40E94F2
:1047B000CC304B015C0120E030E040E05BE3C7011E
:1047C000B6010E9484329B01AC01C501B4010E9474
:1047D0008432562F472F382F292F652F742F832F80
:1047E000922F0F900F900F900F90DF91CF911F910C
:1047F0000F91FF90EF90DF90CF90BF90AF909F9080
:104800008F907F906F905F904F9008959B01240F41
:10481000351F8217930734F4641B750B21E068176A
:1048200079070CF020E0822F089560E084E094D7AF
:1048300060E083E091D760E082E08ED741E050E015
:1048400069E771E280E00CD441E050E069E771E291
:1048500081E006D461E08CE07FD761E08BE07CD71B
:1048600060E08CE0B2D760E08BE0AFD783E393E009
:10487000FED940E85AE166E070E083E393E008DAAD
:104880006AE070E080E090E05DC66091090470919C
:104890000A0480910B0490910C040895609309041C
:1048A00070930A0480930B0490930C040895CF93A3
:1048B000DF93EA0120E030E040E05BE40E948432D4
:1048C0000E949D31988389837A836B83DF91CF9196
:1048D0000895EF92FF920F931F93CF93DF9300D031
:1048E000CDB7DEB7062F142F682F83E393E02A831A
:1048F0003B837983EED97981672F83E393E079D97C
:10490000602F83E393E075D92A81022FE22E3B8149
:10491000F32E8E2D801B811738F4F70161917F01F2
:1049200083E393E066D9F5CF61E083E393E00F90F2
:104930000F900F90DF91CF911F910F91FF90EF900B
:10494000DAC9CF93DF9300D01F92CDB7DEB7FB015A
:10495000442341F050E060E070E0415051096109AA
:10496000710903C040E050E0BA0119821A821B822B
:104970004C839E012F5F3F4F44E0BF01AADF0F90A1
:104980000F900F900F90DF91CF9108959F92AF926B
:10499000BF92CF92DF92EF92FF920F931F93CF932C
:1049A000DF93CDB7DEB728970FB6F894DEBF0FBE02
:1049B000CDBF982E5B01CA01B90167017801AE0134
:1049C0004F5F5F4F74DFAE014B5F5F4FC701B601B2
:1049D0006EDF9E012F5F3F4F48E0B501892D79DFE3
:1049E00028960FB6F894DEBF0FBECDBFDF91CF91F2
:1049F0001F910F91FF90EF90DF90CF90BF90AF90FD
:104A00009F900895AF92BF92CF92DF92EF92FF9264
:104A10000F931F93CF93DF9300D01F921F92CDB7B8
:104A2000DEB7B82EA42E6801790179836A8360917C
:104A3000040470E06B5E774F9E012F5F3F4F42E0B2
:104A400048DF1982AE014E5F5F4FC701B6012FDF0D
:104A50006091040470E0605F774F9E012F5F3F4FCD
:104A600045E08B2D36DF809104048F5F8093040432
:104A7000A11002C0853069F419828CE38A839E01FB
:104A80002F5F3F4F42E06CE178E08B2D22DF1092E8
:104A900004040F900F900F900F900F90DF91CF9123
:104AA0001F910F91FF90EF90DF90CF90BF90AF904C
:104AB00008950F931F9389019A0141E0A3DF1F918D
:104AC0000F9108950F931F9389019A0141E09ADF96
:104AD0001F910F9108952F923F924F925F926F9284
:104AE0007F928F929F92AF92BF92CF92DF92EF927E
:104AF000FF920F931F93CF93DF9300D01F921F92CB
:104B0000CDB7DEB789831B018A012AED3FE049EC6E
:104B100050E4F80160897189828993890E94843206
:104B200020E030E84BEB57E40E9435316A837B8309
:104B30008C839D8320E030E040EA51E4F8016485F5
:104B40007585868597850E9435319B01AC0160E0B3
:104B500070E080E291E40E94E7322B013C01F80111
:104B6000808D8430F1F42A813B814C815D815058E5
:104B70006DEC7CEC8CE290E40E94E7326B017C01EE
:104B80009B01AC0160E070E080E89FE30E94CC30C4
:104B90009B01AC01C301B2010E9484324B015C0154
:104BA00021C08530F9F42A813B814C815D815058C8
:104BB0006DEC7CEC8CE290E40E94E7326B017C01AE
:104BC0009B01AC01C301B2010E9484324B015C0124
:104BD000C701B6019058A30192010E9484322B01B3
:104BE0003C0103C0412C512C3201F801828D8130EF
:104BF00061F4818D8823A1F0B7FAB094B7F8B0942E
:104C000077FA709477F870940BC0C12CD12C760190
:104C100026013701812C912C50E8A52E5FE3B52E9B
:104C20009501840140E0B1018981ECDEB1016F5F43
:104C30007F4F9301820140E08981E4DEB1016E5F24
:104C40007F4F9701860141E08981DCDE0F900F9054
:104C50000F900F900F90DF91CF911F910F91FF90C8
:104C6000EF90DF90CF90BF90AF909F908F907F900C
:104C70006F905F904F903F902F900895EF92FF922A
:104C80000F931F93CF93DF931F921F92CDB7DEB781
:104C90008B017901682F83E393E049835A8319D804
:104CA000980149815A81B70183E393E00E948D1DE9
:104CB00061E083E393E00F900F90DF91CF911F911C
:104CC0000F91FF90EF9017C8CF92DF92FF920F9352
:104CD0001F93CF93DF931F921F92CDB7DEB7F82EAD
:104CE000D62E8901682F83E393E04A8379830E945B
:104CF000691E7981672F83E393E00E94F91D6D2D72
:104D000083E393E00E94F91D60E083E393E00E9457
:104D10007B1E4A816F2D83E393E00E94671ED12C96
:104D200083E393E00E94A21D892B79F0FF24F39482
:104D3000FD0CC8018D0D911D6C0183E393E00E9471
:104D4000AA1DF6018083DF2CEBCF0F900F90DF912F
:104D5000CF911F910F91FF90DF90CF900895CF9347
:104D6000DF93EC0160E08E8130D581E090E00FD4DC
:104D700061E08E812AD581E090E009D460E08E81E7
:104D800024D584E690E0DF91CF9101C4CF92DF92E9
:104D9000EF92FF920F931F93CF93DF937C01C0E0BC
:104DA000D0E0C62ED12C87010C0F1D1F61E0F80149
:104DB0008781D2D4B6010C2E02C0759567950A94EE
:104DC000E2F76170F801878100D52196C430D105E2
:104DD00051F7C701DF91CF911F910F91FF90EF9095
:104DE000DF90CF90BCCFCF92DF92EF92FF920F93E4
:104DF0001F93CF93DF937C01C0E0D0E0C62ED12C6F
:104E000087010C0F1D1F61E0F8018781A5D4B60151
:104E10000C2E02C0759567950A94E2F76170F8014F
:104E20008781D3D42196C830D10551F7C701DF91CE
:104E3000CF911F910F91FF90EF90DF90CF908FCF88
:104E40001F93CF93DF93EC01162F642F8C81BDD479
:104E50008D818F3F11F060E0B8D48F85612F84FF82
:104E600005C0CE01DF91CF911F91BDCF70E084E0EE
:104E7000759567958A95E1F7CE0188DF612FCE01A0
:104E8000DF91CF911F9182CF40E0DACF61E0FCDF6C
:104E900080ED97E07CC3443008F043E0FC012389B7
:104EA000421710F04FEF420FFC01E40FF11D24896F
:104EB000260F2068622FE8CFFC016089262F24602E
:104EC000208B6C60E1CFCF93DF93EC01423018F080
:104ED0008F8588608F874B8B1C8A80E48D8B6E8BCF
:104EE00070E0605C7F4F6F8B222329F0413019F412
:104EF0008F8584608F8780E593EC49D360E08C8157
:104F000064D460E08E8161D48D818F3F11F060E0C8
:104F10005CD46F8564FD16C063E0CE0137DF84E9A1
:104F200091E135D363E0CE0131DF84E991E12FD304
:104F300063E0CE012BDF86E990E029D362E0CE0169
:104F400025DF11C06062CE019FDF84E991E11FD3AC
:104F50006F856062CE0198DF86E990E018D36F8597
:104F60006062CE0191DF6F856062CE018DDF84E0EB
:104F7000888BCE01A1DFCE0189DF82E0898B66E0DC
:104F8000CE01DF91CF9180CF6F927F928F92AF92BF
:104F9000CF92EF920F931F93CF93DF93CDB7DEB7EE
:104FA0003C01162F842F5E854F8538899989F3013E
:104FB000848325830683E782C086A1868286538701
:104FC00044873587968761E0C7D3F30185818F3F9A
:104FD00011F061E0C1D361E0F3018681BDD31123FB
:104FE00019F0F301178603C080E1F301878720E001
:104FF00041E060E1C301DF91CF911F910F91EF90EC
:10500000CF90AF908F907F906F905DCF8F92AF9247
:10501000CF92EF920F93DC0113961C921E9212977F
:10502000E0E2F2E0ED93FC931F921F921F921F9219
:105030008C2CAE2CC02EE22E042F2FEF462F61E0D9
:10504000A3DF0F900F900F900F900F91EF90CF90E4
:10505000AF908F90089541E0F3DE81E090E00895F5
:10506000883008F06DC0E82FF0E0EE0FFF1FE35F1F
:10507000FB4F7183608390E0FC013197E730F105CD
:1050800090F5EE58FF4F0C947234809169008C7F3C
:10509000842B80936900E89A089580916900440FF9
:1050A000551F440F551F837F842B80936900E99A15
:1050B00008958091690074E0440F551F7A95E1F7D7
:1050C0008F7C842B80936900EA9A0895809169000F
:1050D00066E0440F551F6A95E1F78F73842B809328
:1050E0006900EB9A089580916A008C7F842B8093ED
:1050F0006A00EC9A089580916A00440F551F440F8E
:10510000551F837F842B80936A00ED9A08958091C8
:105110006A0024E0440F551F2A95E1F78F7C842B09
:1051200080936A00EE9A089580916A0096E0440F99
:10513000551F9A95E1F78F73842B80936A00EF9A3D
:1051400008951F920F920FB60F9211240BB60F9273
:105150002F933F934F935F936F937F938F939F937F
:10516000AF93BF93EF93FF9380911104909112043A
:10517000892B29F0E0911104F09112041995FF9107
:10518000EF91BF91AF919F918F917F916F915F91BF
:105190004F913F912F910F900BBE0F900FBE0F902C
:1051A0001F9018951F920F920FB60F9211240BB6F5
:1051B0000F922F933F934F935F936F937F938F93B0
:1051C0009F93AF93BF93EF93FF93809113049091BC
:1051D0001404892B29F0E0911304F091140419951B
:1051E000FF91EF91BF91AF919F918F917F916F91BF
:1051F0005F914F913F912F910F900BBE0F900FBE7B
:105200000F901F9018951F920F920FB60F921124B6
:105210000BB60F922F933F934F935F936F937F93B0
:105220008F939F93AF93BF93EF93FF938091150458
:1052300090911604892B29F0E0911504F091160441
:105240001995FF91EF91BF91AF919F918F917F91B0
:105250006F915F914F913F912F910F900BBE0F90E7
:105260000FBE0F901F9018951F920F920FB60F92BE
:1052700011240BB60F922F933F934F935F936F932D
:105280007F938F939F93AF93BF93EF93FF938091FF
:10529000170490911804892B29F0E0911704F091DC
:1052A00018041995FF91EF91BF91AF919F918F9144
:1052B0007F916F915F914F913F912F910F900BBE16
:1052C0000F900FBE0F901F9018951F920F920FB660
:1052D0000F9211240BB60F922F933F934F935F932E
:1052E0006F937F938F939F93AF93BF93EF93FF93AE
:1052F00080910D0490910E04892B29F0E0910D040A
:10530000F0910E041995FF91EF91BF91AF919F918C
:105310008F917F916F915F914F913F912F910F905E
:105320000BBE0F900FBE0F901F9018951F920F92FB
:105330000FB60F9211240BB60F922F933F934F93FA
:105340005F936F937F938F939F93AF93BF93EF93ED
:10535000FF9380910F0490911004892B29F0E09124
:105360000F04F09110041995FF91EF91BF91AF9147
:105370009F918F917F916F915F914F913F912F916D
:105380000F900BBE0F900FBE0F901F9018951F929D
:105390000F920FB60F9211240BB60F922F933F93DB
:1053A0004F935F936F937F938F939F93AF93BF932D
:1053B000EF93FF938091190490911A04892B29F09F
:1053C000E0911904F0911A041995FF91EF91BF91A2
:1053D000AF919F918F917F916F915F914F913F918D
:1053E0002F910F900BBE0F900FBE0F901F9018952E
:1053F0001F920F920FB60F9211240BB60F922F939C
:105400003F934F935F936F937F938F939F93AF934C
:10541000BF93EF93FF9380911B0490911C04892B01
:1054200029F0E0911B04F0911C041995FF91EF9174
:10543000BF91AF919F918F917F916F915F914F91AC
:105440003F912F910F900BBE0F900FBE0F901F90AA
:1054500018951F920F920FB60F9211242F933F931E
:105460008F939F93AF93BF9380911E0490911F04DD
:10547000A0912004B091210430911D0423E0230F5A
:105480002D3720F40196A11DB11D05C026E8230F7C
:105490000296A11DB11D20931D0480931E049093BC
:1054A0001F04A0932004B0932104809122049091C2
:1054B0002304A0912404B09125040196A11DB11DDF
:1054C0008093220490932304A0932404B093250492
:1054D000BF91AF919F918F913F912F910F900FBEF0
:1054E0000F901F9018952FB7F89460911E0470913B
:1054F0001F0480912004909121042FBF08953FB78D
:10550000F8948091220490912304A0912404B091F6
:10551000250426B5A89B05C02F3F19F00196A11DB3
:10552000B11D3FBF6627782F892F9A2F620F711DFB
:10553000811D911D42E0660F771F881F991F4A95B4
:10554000D1F70895CF92DF92EF92FF92CF93DF933E
:105550006B017C01D4DFEB01C114D104E104F1043F
:1055600079F019D6CCDF6C1B7D0B683E7340A0F33D
:1055700081E0C81AD108E108F108C851DC4FECCF2E
:10558000DF91CF91FF90EF90DF90CF90089501973A
:1055900039F0880F991F880F991F02970197F1F72B
:1055A0000895789484B5826084BD84B5816084BD9B
:1055B00085B5826085BD85B5816085BDEEE6F0E08C
:1055C000808181608083E1E8F0E0108280818260E8
:1055D0008083808181608083E0E8F0E08081816069
:1055E0008083E1EBF0E0808184608083E0EBF0E099
:1055F000808181608083E1E9F0E080818260808346
:10560000808181608083E0E9F0E080818160808337
:10561000E1EAF0E080818260808380818160808324
:10562000E0EAF0E0808181608083E1E2F1E0808166
:1056300082608083808181608083E0E2F1E080810C
:1056400081608083EAE7F0E08081846080838081EC
:105650008260808380818160808380818068808394
:105660001092C1000895863308F0865320917B0084
:10567000982F9870277F922B90937B0087702091B2
:10568000090290E4299F90011124822B80937C00D1
:1056900080917A00806480937A0080917A0086FD00
:1056A000FCCF809178002091790090E0922B0895B2
:1056B00090E0FC013197E231F10508F04CC0E75869
:1056C000FF4F0C947234809180008F7703C08091DB
:1056D00080008F7D80938000089580918000877F77
:1056E000F9CF84B58F7702C084B58F7D84BD0895CE
:1056F0008091B0008F7703C08091B0008F7D809340
:10570000B0000895809190008F7707C0809190003D
:105710008F7D03C080919000877F809390000895D3
:105720008091A0008F7707C08091A0008F7D03C07B
:105730008091A000877F8093A00008958091200130
:105740008F7707C0809120018F7D03C08091200159
:10575000877F809320010895CF93DF9390E0FC0131
:10576000E15CF74D2491FC01EB57F74D84918823C0
:1057700049F190E0880F991FFC01E150F74DA59188
:10578000B4918B51974DFC01C591D4919FB7611194
:1057900008C0F8948C91209582238C938881822371
:1057A0000AC0623051F4F8948C91322F30958323E3
:1057B0008C938881822B888304C0F8948C91822BEF
:1057C0008C939FBFDF91CF9108950F931F93CF9339
:1057D000DF931F92CDB7DEB7282F30E0F901E750F5
:1057E000F84D8491F901E15CF74D1491F901EB5703
:1057F000F74D04910023C1F0882319F0698358DF25
:105800006981E02FF0E0EE0FFF1FEB51F74DA591FE
:10581000B4919FB7F8948C91611103C010958123C6
:1058200001C0812B8C939FBF0F90DF91CF911F916F
:105830000F910895CF93DF93282F30E0F901E750BF
:10584000F84D8491F901E15CF74DD491F901EB57E2
:10585000F74DC491CC2389F081112ADFEC2FF0E0C1
:10586000EE0FFF1FE553F74DA591B4912C912D2319
:1058700081E090E021F480E002C080E090E0DF91E0
:10588000CF910895FC01818D228D90E0805C9F4F27
:10589000821B91098F7399270895FC01918D828D48
:1058A000981731F0828DE80FF11D858D90E00895F5
:1058B0008FEF9FEF0895FC01918D828D981761F015
:1058C000828DDF01A80FB11D5D968C91928D9F5F37
:1058D0009F73928F90E008958FEF9FEF089580E17E
:1058E0009EE2892B39F080E090E0892B19F098D165
:1058F000811125C080E090E0892B41F080E090E0AC
:10590000892B21F00E94000081111CC080E090E0F2
:10591000892B41F080E090E0892B21F00E9400006B
:10592000811113C080E090E0892BA1F080E090E02D
:10593000892B81F00E94000081110AC008950E9405
:105940000000D8CF0E940000E1CF0E940000EACF03
:105950000C9400000895FC01848DDF01A80FB11D97
:10596000A35ABF4F2C91848D90E001968F73992795
:10597000848FA689B7892C93A089B1898C91806482
:105980008C93938D848D981306C00288F389E02D43
:1059900080818F7D80830895CF93DF93EC01888D84
:1059A0008823C1F0EA89FB89808185FD05C0A8892B
:1059B000B9898C9186FD0EC00FB607FCF5CF8081AA
:1059C00085FFF2CFA889B9898C9185FFEDCFCE01F3
:1059D000C2DFE8CFDF91CF910895CF92DF92FF929F
:1059E0000F931F93CF93DF931F92CDB7DEB76C0158
:1059F000DC015B969C915B975C968C915C9798130D
:105A000007C05096ED91FC915197808185FD31C082
:105A1000F601038D10E00F5F1F4F0F731127F02E5B
:105A2000F601848DF81210C00FB607FCF9CFD6012D
:105A30005096ED91FC915197808185FFF1CFC60181
:105A4000698389DF6981ECCF838DE80FF11DE35A0B
:105A5000FF4F6083D6015B960C935B975296ED9156
:105A6000FC91539780818062808381E058968C936B
:105A70000DC0D6015696ED91FC91579760835096D4
:105A8000ED91FC91519780818064808381E090E06A
:105A90000F90DF91CF911F910F91FF90DF90CF90EA
:105AA0000895BF92CF92DF92EF92FF92CF93DF9350
:105AB000EC016A017B01B22EE889F98982E08083DA
:105AC000411581EE58076105710599F060E079E0B4
:105AD0008DE390E0A7019601E3D6215031094109F9
:105AE00051095695479537952795211580E1380737
:105AF00090F0E889F989108260E874E88EE190E01E
:105B0000A7019601CDD62150310941095109569579
:105B1000479537952795EC85FD853083EE85FF8584
:105B20002083188EEC89FD89B082EA89FB89808107
:105B300080618083EA89FB89808188608083EA892B
:105B4000FB89808180688083EA89FB8980818F7DE1
:105B50008083DF91CF91FF90EF90DF90CF90BF9047
:105B600008951F920F920FB60F9211240BB60F9249
:105B70002F938F939F93EF93FF93E0913604F091CF
:105B800037048081E0913C04F0913D0482FD12C015
:105B9000908180913F048F5F8F7320914004821722
:105BA00051F0E0913F04F0E0EA5DFB4F958F809368
:105BB0003F0401C08081FF91EF919F918F912F91C0
:105BC0000F900BBE0F900FBE0F901F9018951F9255
:105BD0000F920FB60F9211240BB60F922F933F9393
:105BE0004F935F936F937F938F939F93AF93BF93E5
:105BF000EF93FF9386E294E0AEDEFF91EF91BF91C9
:105C0000AF919F918F917F916F915F914F913F9154
:105C10002F910F900BBE0F900FBE0F901F901895F5
:105C200086E294E02FDE21E0892B09F420E0822F28
:105C30000895109229041092280488EE93E0A0E0C1
:105C4000B0E080932A0490932B04A0932C04B0938B
:105C50002D0488E292E0909327048093260485EC3B
:105C600090E0909333048093320484EC90E090931E
:105C700035048093340480EC90E090933704809353
:105C8000360481EC90E0909339048093380482ECE0
:105C900090E090933B0480933A0486EC90E09093DC
:105CA0003D0480933C0410923F04109240041092F3
:105CB0004104109242040895089573DCFDDF0E94B0
:105CC0007B1BCFE6DCE20E9486162097E1F307DE1D
:105CD000FACFCF92DF92EF92FF920F931F93CF9361
:105CE000DF936C017A01EB01E60EF71E00E010E095
:105CF000CE15DF0561F06991D601ED91FC9101901F
:105D0000F081E02DC6011995080F191FF1CFC801C8
:105D1000DF91CF911F910F91FF90EF90DF90CF9087
:105D200008956115710581F0DB010D900020E9F700
:105D3000AD0141505109461B570BDC01ED91FC911F
:105D40000280F381E02D199480E090E00895EF92B5
:105D5000FF920F931F93CF93DF938C01FB01C0E061
:105D6000D0E064917F018FEFE81AF80A662361F0B2
:105D7000D801ED91FC910190F081E02DC8011995B9
:105D8000C80FD91FF701EDCFCE01DF91CF911F9141
:105D90000F91FF90EF900895DC01ED91FC9101903F
:105DA000F081E02D19940F931F93CF93DF93EC01B3
:105DB0006DE0F2DF8C016AE0CE01EEDF800F911F13
:105DC000DF91CF911F910F9108950F931F93CF9360
:105DD000DF93EC01BCDF8C01CE01E5DF800F911F6A
:105DE000DF91CF911F910F9108958F929F92AF9263
:105DF000BF92CF92DF92EF92FF920F931F93CF93B8
:105E0000DF93CDB7DEB7A1970FB6F894DEBF0FBE14
:105E1000CDBF7C01C42EE52FCB01D22E19A221E0EB
:105E20002D1510F02AE0D22E8E010F5D1F4F8D2C04
:105E3000912CA12CB12C6C2D7E2FA501940130D575
:105E40008C2DD29E80191124015011098A3014F42E
:105E5000805D01C0895CF801808321153105410511
:105E6000510521F0C22EE32FCA01E5CFB801C701C9
:105E700058DFA1960FB6F894DEBF0FBECDBFDF91FD
:105E8000CF911F910F91FF90EF90DF90CF90BF9037
:105E9000AF909F908F900895CF92DF92EF92FF92F4
:105EA0000F931F93CF93DF93EC016A017B012115C0
:105EB000310579F4E881F9810190F081E02D642FBA
:105EC000DF91CF911F910F91FF90EF90DF90CF90D6
:105ED00019942A303105D9F477FF18C06DE25CDFE0
:105EE0008C0144275527BA014C195D096E097F09B9
:105EF0002AE0CE017ADF800F911FDF91CF911F91B1
:105F00000F91FF90EF90DF90CF9008952AE0B701B6
:105F1000A601CE01DF91CF911F910F91FF90EF90DD
:105F2000DF90CF9062CF0F931F93CF93DF93EC015D
:105F30009A01AB01662757FD6095762FADDF8C0186
:105F4000CE0131DF800F911FDF91CF911F910F9113
:105F500008950F931F93CF93DF93EC019DDF8C0186
:105F6000CE0121DF800F911FDF91CF911F910F9103
:105F700008952115310541F4DC01ED91FC9101906A
:105F8000F081E02D642F199430CF0F931F93CF939E
:105F9000DF93EC019A01462F50E060E070E0E9DF0A
:105FA0008C01CE0100DF800F911FDF91CF911F91F7
:105FB0000F9108959A01AB0160E070E0DACF0F9382
:105FC0001F93CF93DF93EC019A01AB0160E070E087
:105FD000D0DF8C01CE01E7DE800F911FDF91CF91E2
:105FE0001F910F9108954F925F926F927F928F92BF
:105FF0009F92AF92BF92CF92DF92EF92FF920F9358
:106000001F93CF93DF93EC016A017B01B22E9A01BB
:10601000AB01C701B60127D3882319F064E372E00E
:1060200024C026013701E89477F82FEF3FEF4FE7C0
:106030005FE7C301B20117D381110CC02FEF3FEF0F
:106040004FE75FE7C301B2010CD118161CF468E3F7
:1060500072E00BC02FEF3FEF4FE75FE4C701B601DF
:106060004FD21816A4F46CE372E0CE01DF91CF9109
:106070001F910F91FF90EF90DF90CF90BF90AF9066
:106080009F908F907F906F905F904F904ACE2FEFB0
:106090003FEF4FE75FECC701B601E3D087FDE3CFE9
:1060A00020E030E0A901C701B601DBD087FF09C0BD
:1060B0006DE2CE0171DE8C01F7FAF094F7F8F094FE
:1060C00002C000E010E0A12C60E070E080E09FE3FF
:1060D000AB1439F020E030E040E251E4C6D0A394A4
:1060E000F7CF9B01AC01C701B60157D06B017C0112
:1060F00029D12B013C0152D19B01AC01C701B60152
:106100004BD06B017C012AE0B301A201CE016DDE10
:10611000080F191FBB2031F060E472E0CE0101DEF0
:10612000080F191F7B2C772019F120E030E040E2A6
:1061300051E4C701B601E8D16B017C01FED04B01EF
:10614000AA2497FCA094BA2C2AE030E0B501A4015F
:10615000CE01A2DE080F191FC501B40121D19B0198
:10616000AC01C701B60118D06B017C017A94DBCF7A
:10617000C801DF91CF911F910F91FF90EF90DF90B9
:10618000CF90BF90AF909F908F907F906F905F90D7
:106190004F90089528CF08955058BB27AA270ED0B6
:1061A00075C166D130F06BD120F031F49F3F11F40E
:1061B0001EF45BC10EF4E095E7FB51C1E92F77D1E6
:1061C00080F3BA17620773078407950718F071F414
:1061D0009EF58FC10EF4E0950B2EBA2FA02D0B016A
:1061E000B90190010C01CA01A0011124FF27591B1C
:1061F00099F0593F50F4503E68F11A16F040A22F22
:10620000232F342F4427585FF3CF46953795279592
:10621000A795F0405395C9F77EF41F16BA0B620B91
:10622000730B840BBAF09150A1F0FF0FBB1F661FD8
:10623000771F881FC2F70EC0BA0F621F731F841F1B
:1062400048F4879577956795B795F7959E3F08F041
:10625000B3CF9395880F08F09927EE0F9795879500
:106260000895D9D008F481E008950CD00FC107D16A
:1062700040F0FED030F021F45F3F19F0F0C0511132
:1062800039C1F3C014D198F39923C9F35523B1F35D
:10629000951B550BBB27AA2762177307840738F095
:1062A0009F5F5F4F220F331F441FAA1FA9F333D0F4
:1062B0000E2E3AF0E0E830D091505040E695001CA8
:1062C000CAF729D0FE2F27D0660F771F881FBB1F64
:1062D000261737074807AB07B0E809F0BB0B802D3E
:1062E000BF01FF2793585F4F2AF09E3F510568F08A
:1062F000B6C000C15F3FECF3983EDCF3869577951E
:106300006795B795F7959F5FC9F7880F911D96958B
:10631000879597F90895E1E0660F771F881FBB1FE7
:10632000621773078407BA0720F0621B730B840B94
:10633000BA0BEE1F88F7E095089504D06894B11168
:10634000D9C00895BCD088F09F5790F0B92F9927F5
:10635000B751A0F0D1F0660F771F881F991F1AF070
:10636000BA95C9F712C0B13081F0C3D0B1E0089539
:10637000C0C0672F782F8827B85F39F0B93FCCF3BA
:10638000869577956795B395D9F73EF49095809566
:10639000709561957F4F8F4F9F4F0895E89409C086
:1063A00097FB3EF490958095709561957F4F8F4F48
:1063B0009F4F9923A9F0F92F96E9BB279395F6955E
:1063C000879577956795B795F111F8CFFAF4BB0FDC
:1063D00011F460FF1BC06F5F7F4F8F4F9F4F16C040
:1063E000882311F096E911C0772321F09EE8872FCA
:1063F000762F05C0662371F096E8862F70E060E086
:106400002AF09A95660F771F881FDAF7880F9695FE
:10641000879597F90895990F0008550FAA0BE0E8A2
:10642000FEEF16161706E807F907C0F01216130656
:10643000E407F50798F0621B730B840B950B39F496
:106440000A2661F0232B242B252B21F408950A26FC
:1064500009F4A140A6958FEF811D811D089597F93C
:106460009F6780E870E060E008959FEF80EC0895FA
:1064700000240A9416161706180609060895002423
:106480000A9412161306140605060895092E03949D
:10649000000C11F4882352F0BB0F40F4BF2B11F411
:1064A00060FF04C06F5F7F4F8F4F9F4F089557FD70
:1064B0009058440F551F59F05F3F71F04795880F72
:1064C00097FB991F61F09F3F79F087950895121609
:1064D00013061406551FF2CF4695F1DF08C01616B5
:1064E00017061806991FF1CF869571056105089466
:1064F0000895E894BB2766277727CB0197F908957D
:106500008ADF08F48FEF08950BD0C0CFB1DF28F0F9
:10651000B6DF18F0952309F0A2CFA7CF1124EACF58
:10652000C6DFA0F3959FD1F3950F50E0551F629FF2
:10653000F001729FBB27F00DB11D639FAA27F00DDC
:10654000B11DAA1F649F6627B00DA11D661F829F03
:106550002227B00DA11D621F739FB00DA11D621FE8
:10656000839FA00D611D221F749F3327A00D611D05
:10657000231F849F600D211D822F762F6A2F1124E7
:106580009F5750408AF0E1F088234AF0EE0FFF1F3A
:10659000BB1F661F771F881F91505040A9F79E3F71
:1065A000510570F05CCFA6CF5F3FECF3983EDCF373
:1065B000869577956795B795F795E7959F5FC1F7AE
:1065C000FE2B880F911D9695879597F90895FA01EE
:1065D000EE0FFF1F30962105310599F16115710508
:1065E00061F48038BFE39B0749F1689490388105D6
:1065F00061F08038BFEF9B0741F0992342F5FF3FE0
:10660000E1053105210511F1E8940894E795D901D8
:10661000AA2329F4AB2FBE2FF85FD0F310C0FF5F81
:1066200070F4A695E0F7F73950F019F0FF3A38F416
:106630009F779F930CD00F9007FC905808953EF0E1
:1066400014CF60E070E080E89FE308954FE79F7704
:106650005F934F933F932F93B0D02F913F914F91E2
:106660005F9152DF09C0D7DE880B990B089519F4AA
:106670000EF0F5CE3ECFF9CE22DFC8F39638C0F744
:1066800007F80F92E8942BE33AEA48EB5FE74ADF1A
:106690000F920F920F924DB75EB70F92CED0E6E1F8
:1066A000F1E024D04F915F91EF91FF91E595EE1FBE
:1066B000FF1F49F0FE57E0684427EE0F441FFA958C
:1066C000E1F74195550B40D00F9007FE34C0089577
:1066D0009F3F31F0915020F4879577956795B79556
:1066E000880F911D9695879597F90895DF93CF931D
:1066F0001F930F93FF92EF92DF927B018C016894BE
:1067000005C0DA2EEF010CDFFE01E894A59125917A
:10671000359145915591AEF3EF0150DDFE019701A2
:10672000A801DA9479F7DF90EF90FF900F911F9115
:10673000CF91DF9108959B01AC0160E070E080E8AB
:106740009FE393CD8CCEC4CFBADEE8F39923D9F37F
:10675000940F511DBBF39150504094F059F0882391
:1067600032F0660F771F881F91505040C1F79E3F4F
:10677000510544F7880F911D9695879597F90895CF
:106780005F3FACF0983E9CF0BB2786957795679568
:10679000B79508F4B1609395C1F7BB0F58F711F4A2
:1067A00060FFE8CF6F5F7F4F8F4F9F4FE3CFA2CE49
:1067B0000EF08ECF5ACE689452CE81DEC8F3992364
:1067C000D1F3C6F3DF93CF931F930F93FF92C92F9B
:1067D000DD2788232AF02197660F771F881FDAF7B5
:1067E00020E030E040E85FEB9FE3883920F0803E16
:1067F00030F021968F77D1DCEEE3F1E003C0CDDC01
:10680000EBE6F1E073DF8B01BE01EC01FB2E6F576D
:1068100071097595771F880B990BC2DD28E132E766
:1068200041E35FE37DDEAF2D9801AE01FF900F9154
:106830001F91CF91DF91C2DC29CEFA01DC01AA0FB2
:10684000BB1F9B01AC01BF5728F4222733274427E5
:1068500050781FC0B75188F4AB2F00244695379568
:106860002795011CA395D2F3002069F0220F331F56
:10687000441FB395DAF30DD08FCC61307105A0E8D9
:106880008A07B94630F49B01AC0166277727882731
:106890009078309621F0208331834283538308958A
:1068A000A1E21A2EAA1BBB1BFD010DC0AA1FBB1F14
:1068B000EE1FFF1FA217B307E407F50720F0A21B86
:1068C000B30BE40BF50B661F771F881F991F1A94F3
:1068D00069F760957095809590959B01AC01BD011D
:1068E000CF010895EE0FFF1F0590F491E02D19944C
:1068F0000DD0A59F900DB49F900DA49F800D911D6C
:10690000112408950790F691E02D1994A29FB001EB
