:100000000C944B140C9493280C94C4280C94F5284D
:100010000C9426290C9457290C9488290C94B929FE
:100020000C94EA290C947C140C947C140C947C148D
:100030000C947C140C947C140C947C140C947C1400
:100040000C947C140C947C140C947C140C947C14F0
:100050000C947C140C947C140C947C140C941B2A2B
:100060000C947C140C94A32D0C94D92D0C947C141A
:100070000C947C140C947C140C947C140C947C14C0
:100080000C947C140C947C140C947C140C947C14B0
:100090000C947C140C947C140C947C140C94EB1F26
:1000A0000C947C140C947C140C947C140C947C1490
:1000B0000C947C140C947C140C947C140C947C1480
:1000C0000C947C140C947C140C947C140C947C1470
:1000D0000C947C140C947C140C947C140C947C1460
:1000E0000C947C146D2837283F284B2858287928F1
:1000F0008628632B662B552B592B5F2B9D2B6A2B48
:100100006E2B742B782B7C2B822B862B8A2B9D2B92
:10011000902B942B982B07634236B79BD8A71A399C
:10012000685618AEBAAB558C1D3CB7CC5763BD6D45
:10013000EDFD753EF6177231BF000000803F0800EC
:100140000000BE922449123EABAAAA2ABECDCCCC56
:100150004C3E00000080BEABAAAAAA3E00000000F0
:10016000BF000000803F0000000000084178D3BBC2
:100170004387D1133D190E3CC3BD4282AD2B3E686F
:10018000EC8276BED98FE1A93E4C80EFFFBE01C460
:10019000FF7F3F0000000000485720436F6E6669F4
:1001A00067204F4B00307800526561646564203DE4
:1001B00020003078005772697474656E203D20000D
:1001C000416464726573733A2000206572726F72C5
:1001D0007320647572696E6720485720636F6E667E
:1001E000696720646F776E6C6F61640048572043C5
:1001F0006F6E66696720636865636B696E672E2E34
:100200002E0052656720506172616D204F4B0030A7
:100210007800526561646564203D200030780057A5
:1002200072697474656E203D200041646472657368
:10023000733A2000206572726F7273206475726960
:100240006E672052656720506172616D20646F7720
:100250006E6C6F616400506172616D6574657220CF
:10026000636865636B696E672E2E2E0050726F6730
:1002700072616D204F4B0030780052656164656497
:10028000203D20003078005772697474656E203DFF
:100290002000416464726573733A200020657272B5
:1002A0006F727320647572696E672050726F677227
:1002B000616D20646F776E6C6F61640050726F6760
:1002C00072616D20636865636B696E672E2E2E0008
:1002D00020476500205369002500426C656E643A32
:1002E000002500566F6C3A002500546F6E653A0089
:1002F000250044726976653A0054756265736372CD
:1003000065616D65722039366B0042595041535317
:10031000005B48005B324A00547562657363722E5D
:100320002056302E330041696461204453502042EE
:100330006F78003078004169646120445350206335
:100340006F6E74726F6C20776974682041524455E7
:10035000494E4F00001D0019080000060000A0AA29
:10036000000000000000800000000000000100808C
:1003700000000080000000800000016A3D71007DE7
:1003800012CD0F82ED33007A259B02800000FD80A4
:10039000000005000000000000000000000905004A
:1003A000000000800000000000000000000002804B
:1003B0000000FD800000FF9C3E18FF9C7608FF9C1B
:1003C000B029FF9CEC9EFF9D2BAAFF9D6D76FF9DA3
:1003D000B24FFF9DFA76FF9E464AFF9E9625FF9EEE
:1003E000EA7DFF9F43E1FF9FA2E8FFA0085BFFA01B
:1003F0007525FFA0EA64FFA1697FFFA1F43CFFA27D
:100400008CF8FFA336C6FFA3F5C7FFA4CFFAFFA55C
:10041000CE18FFA6FDDBFFA8765CFFAA62A2FFADA7
:10042000203AFFB1AD97FFBB572EFFCD5098FFE1AB
:1004300086ECFFF5D767000A2899001E7914003270
:10044000AF680044A8D2004E52690052DFC6005582
:100450009D5E005789A400590225005A31E8005BCF
:100460003006005C0A39005CC93A005D7308005E22
:100470000BC4005E9681005F159C005F8ADB005F05
:10048000F7A500605D180060BC1F00611583006166
:1004900069DB0061B9B60062058A00624DB1006295
:1004A000928A0062D4560063136200634FD70063E0
:1004B00089F80063C1E80FC00000000CCCCD00003B
:1004C000003FFF91AFEAFF92B229FF93BD0EFF9468
:1004D000D14AFF95EF7CFF97185DFF984CCFFF99AD
:1004E0008DB5FF9ADC1AFF9C392EFF9DA640FF9F19
:1004F00024E1FFA0B6C8FFA25E03FFA41CE7FFA58E
:10050000F634FFA7ED42FFAA05E6FFAC44E9FFAED3
:10051000B010FFB14E7FFFB42952FFB74C0AFFBAAB
:10052000C5D2FFBEAAEBFFC31727FFC831F0FFCE2D
:1005300034DBFFD5761DFFDE770CFFE9E426FFF8FC
:1005400023180007DCE800161BDA002188F4002AD3
:1005500089E30031CB250037CE10003CE8D90041BB
:10056000551500453A2E0048B3F6004BD6AE004E66
:10057000B18100514FF00053BB170055FA1A0058D3
:1005800012BE005A09CC005BE319005DA1FD005FBB
:1005900049380060DB1F006259C00063C6D20065A5
:1005A00023E60066724B0067B3310068E7A3006A78
:1005B0001084006B2EB6006C42F2006D4DD7006EB9
:1005C00050160FC00000000CCCCD0000003F0040D2
:1005D00026E7004026E70080000000000000000041
:1005E000000000080E6D000000000077F19300800D
:1005F00000000000080000000000000000000000F3
:1006000000000000000000000000000000000000EA
:1006100000000000000000000000000000000000DA
:1006200000000000000000000000000000000000CA
:1006300000000000000000000000000000000000BA
:10137000000001000000E80100000000010008007A
:10138000E801FFF2002001001000E201FFF201205D
:1013900001001800E201FFF2022001002000E2013A
:1013A0000011082001FEC80002010019082001FFF9
:1013B000100002010021082001FF18000201000AAC
:1013C000032001003000E2010000000001004A0695
:1013D0002001003A0634010032042201002A0522CD
:1013E000010000000001004000E201005000F20195
:1013F0000041082001005800E201FFF2084001000E
:10140000410820090000000001005800E423FFF219
:1014100007200100410840090000000001005800B9
:10142000E22300000000010041082001000000004C
:1014300001006000F001005A092001006800E2018B
:101440000000000001006108200100000000010010
:101450009800F0010089082009009000E20100795D
:10146000082001FFF20B2267008000E201009908CA
:1014700022490099082001008000E227FFF20A209B
:1014800001009000E22700000000010091082009FF
:10149000FFF9082241009000E226008108200100A7
:1014A0007000E201006A0C200100B000E2010000BF
:1014B0000000010000000001007108200100A000F0
:1014C000E20100CA0F200100BA0F340100B20D2260
:1014D0000100AA0E2201000000000100C000E2018C
:1014E00000D000F20100C108200100D800E201FF95
:1014F000F211400100C1082009000000000100D8DD
:1015000000E423FFF210200100C1084009000000A0
:10151000000100D800E223000000000100DA53209F
:1015200001FFF252224100F000E20100F2542001DA
:101530000000000001010000E201010800F20101C9
:101540000000C0010000000001000213A101FFE142
:10155000082001000212A101FFE108224100E80079
:10156000E201010800C00100EFFF2001FFE10822B5
:101570000100E000E20100DA962001FFF29522412D
:1015800000F000E20100F2972001000000000101DC
:101590000000E201010800F201010000C0010000AA
:1015A000000001000256A101FFE1082001000255E0
:1015B000A101FFE108224100E800E201010800C0AA
:1015C0000100EFFF2001FFE1082201011000E2010C
:1015D000FFF29820010119082241015800E201019F
:1015E00029082001011908340101591422010120A0
:1015F00000E201012000C001013000F20100E7FF1C
:101600004001FFF29920010139082241015800E20E
:10161000010149082001013908340101591422014E
:10162000014000E201014000C001015000F201014F
:1016300017FF44010000000001016800E40101827D
:101640009C200101729C3401016A9A220101629B73
:1016500022010000000001017800E201018800F28F
:101660000100310820010179082201000000000179
:10167000019800E20101B29F200101A29F34010103
:101680009A9D220101929E2201000000000101A802
:1016900000E20101B800F201FFF2A0200101C90837
:1016A000224101E800E20101D908200101C9083402
:1016B0000101EAA1220101D000E20101D000C00134
:1016C00001E000F20101AFFF200101C000E201FFD3
:1016D000F2A22001021000E20101C108200101F87C
:1016E00000E2010031082001020000E201FFE908E8
:1016F0002001026800E2010209082001021108220B
:1017000049FFF1082026026800E2010229082001B1
:10171000FFF113224902090820010249082025028D
:101720005000E2010239082001FFF11322490209A9
:101730000820010259082025026000E20102710818
:1017400020010000000001028000F0010281082059
:1017500001FFF11322490269082001FFE908202551
:10176000026800E2010209082001021000E22502DD
:10177000190820010229082241027800E201022909
:101780000820010279142201023000E20102500017
:10179000C0010007FFA001023000C00101FFFF20CF
:1017A0008101F000E201FFF1082001FFF7FF224173
:1017B000024000E201026000C0010007FFA0010238
:1017C0004000C00101FFFF208101F108220101F06A
:1017D00000E201021908200102690822410000000C
:1017E0000001022000F001000000000101F10820CA
:1017F00001FF6800020101F1082001FF70000201F1
:1018000001F1082001FF7800020101F1082001FF29
:101810008000020100000000010000000001000043
:1018200000000100000000010000000001000000B5
:1018300000010000000001000000000100000000A5
:101840000100000000010000000001000000000194
:101850000000000001000000000100000000010085
:101860000000000100000000010000000001000075
:101870000000010000000001000000000100000065
:101880000001000000000100000000010000000055
:101890000100000000010000000001000000000144
:1018A0000000000001000000000100000000010035
:1018B0000000000100000000010000000001000025
:1018C0000000010000000001000000000100000015
:1018D0000001000000000100000000010000000005
:1018E00001000000000100000000010000000001F4
:1018F00000000000010000000001000000000100E5
:1019000000000001000000000100000000010000D4
:1019100000000100000000010000000001000000C4
:1019200000010000000001000000000100000000B4
:1019300001000000000100000000010000000001A3
:101940000000000001000000000100000000010094
:101950000000000100000000010000000001000084
:101960000000010000000001000000000100000074
:101970000001000000000100000000010000000064
:101980000100000000010000000001000000000153
:101990000000000001000000000100000000010044
:1019A0000000000100000000010000000001000034
:1019B0000000010000000001000000000100000024
:1019C0000001000000000100000000010000000014
:1019D0000100000000010000000001000000000103
:1019E00000000000010000000001000000000100F4
:1019F00000000001000000000100000000010000E4
:101A000000000100000000010000000001000000D3
:101A100000010000000001000000000100000000C3
:101A200001000000000100000000010000000001B2
:101A300000000000010000000001000000000100A3
:101A40000000000100000000010000000001000093
:101A50000000010000000001000000000100000083
:101A60000001000000000100000000010000000073
:101A70000100000000010000000001000000000162
:101A80000000000001000000000100000000010053
:101A90000000000100000000010000000001000043
:101AA0000000010000000001000000000100000033
:101AB0000001000000000100000000010000000023
:101AC0000100000000010000000001000000000112
:101AD0000000000001000000000100000000010003
:101AE00000000001000000000100000000010000F3
:101AF00000000100000000010000000001000000E3
:101B000000010000000001000000000100000000D2
:101B100001000000000100000000010000000001C1
:101B200000000000010000000001000000000100B2
:101B300000000001000000000100000000010000A2
:101B40000000010000000001000000000100000092
:101B50000001000000000100000000010000000082
:101B60000100000000010000000001000000000171
:101B70000000000001000000000100000000010062
:101B80000000000100000000010000000001000052
:101B90000000010000000001000000000100000042
:101BA0000001000000000100000000010000000032
:101BB0000100000000010000000001000000000121
:101BC0000000000001000000000100000000010012
:101BD0000000000100000000010000000001000002
:101BE00000000100000000010000000001000000F2
:101BF00000010000000001000000000100000000E2
:101C000001000000000100000000010000000001D0
:101C100000000000010000000001000000000100C1
:101C200000000001000000000100000000010000B1
:101C300000000100000000010000000001000000A1
:101C40000001000000000100000000010000000091
:101C50000100000000010000000001000000000180
:101C60000000000001000000000100000000010071
:101C70000000000100000000010000000001000061
:101C80000000010000000001000000000100000051
:101C90000001000000000100000000010000000041
:101CA0000100000000010000000001000000000130
:101CB0000000000001000000000100000000010021
:101CC0000000000100000000010000000001000011
:101CD0000000010000000001000000000100000001
:101CE00000010000000001000000000100000000F1
:101CF00001000000000100000000010000000001E0
:101D000000000000010000000001000000000100D0
:101D100000000001000000000100000000010000C0
:101D200000000100000000010000000001000000B0
:101D300000010000000001000000000100000000A0
:101D4000010000000001000000000100000000018F
:101D50000000000001000000000100000000010080
:101D60000000000100000000010000000001000070
:101D70000000010000000001000000000100000060
:101D80000001000000000100000000010000000050
:101D9000010000000001000000000100000000013F
:101DA0000000000001000000000100000000010030
:101DB0000000000100000000010000000001000020
:101DC0000000010000000001000000000100000010
:101DD0000001000000000100000000010000000000
:101DE00001000000000100000000010000000001EF
:101DF00000000000010000000001000000000100E0
:101E000000000001000000000100000000010000CF
:101E100000000100000000010000000001000000BF
:101E200000010000000001000000000100000000AF
:101E3000010000000001000000000100000000019E
:101E4000000000000100000000010000000001008F
:101E5000000000010000000001000000000100007F
:101E6000000001000000000100000000010000006F
:101E7000000100000000010000000001000000005F
:101E8000010000000001000000000100000000014E
:101E9000000000000100000000010000000001003F
:101EA000000000010000000001000000000100002F
:101EB000000001000000000100000000010000001F
:101EC000000100000000010000000001000000000F
:101ED00001000000000100000000010000000001FE
:101EE00000000000010000000001000000000100EF
:101EF00000000001000000000100000000010000DF
:101F000000000100000000010000000001000000CE
:101F100000010000000001000000000100000000BE
:101F200001000000000100000000010000000001AD
:101F3000000000000100000000010000000001009E
:101F4000000000010000000001000000000100008E
:101F5000000001000000000100000000010000007E
:101F6000000100000000010000000001000000006E
:101F7000010000000001000000000100000000015D
:101F8000000000000100000000010000000001004E
:101F9000000000010000000001000000000100003E
:101FA000000001000000000100000000010000002E
:101FB000000100000000010000000001000000001E
:101FC000010000000001000000000100000000010D
:101FD00000000000010000000001000000000100FE
:101FE00000000001000000000100000000010000EE
:101FF00000000100000000010000000001000000DE
:1020000000010000000001000000000100000000CD
:1020100001000000000100000000010000000001BC
:1020200000000000010000000001000000000100AD
:10203000000000010000000001000000000100009D
:10204000000001000000000100000000010000008D
:10205000000100000000010000000001000000007D
:10206000010000000001000000000100000000016C
:10207000000000000100000000010000000001005D
:10208000000000010000000001000000000100004D
:10209000000001000000000100000000010000003D
:1020A000000100000000010000000001000000002D
:1020B000010000000001000000000100000000011C
:1020C000000000000100000000010000000001000D
:1020D00000000001000000000100000000010000FD
:1020E00000000100000000010000000001000000ED
:1020F00000010000000001000000000100000000DD
:1021000001000000000100000000010000000001CB
:1021100000000000010000000001000000000100BC
:1021200000000001000000000100000000010000AC
:10213000000001000000000100000000010000009C
:10214000000100000000010000000001000000008C
:10215000010000000001000000000100000000017B
:10216000000000000100000000010000000001006C
:10217000000000010000000001000000000100005C
:10218000000001000000000100000000010000004C
:10219000000100000000010000000001000000003C
:1021A000010000000001000000000100000000012B
:1021B000000000000100000000010000000001001C
:1021C000000000010000000001000000000100000C
:1021D00000000100000000010000000001000000FC
:1021E00000010000000001000000000100000000EC
:1021F00001000000000100000000010000000001DB
:1022000000000000010000000001000000000100CB
:1022100000000001000000000100000000010000BB
:1022200000000100000000010000000001000000AB
:10223000000100000000010000000001000000009B
:10224000010000000001000000000100000000018A
:10225000000000000100000000010000000001007B
:10226000000000010000000001000000000100006B
:10227000000001000000000100000000010000005B
:10228000000100000000010000000001000000004B
:10229000010000000001000000000100000000013A
:1022A000000000000100000000010000000001002B
:1022B000000000010000000001000000000100001B
:1022C000000001000000000100000000010000000B
:1022D00000010000000001000000000100000000FB
:1022E00001000000000100000000010000000001EA
:1022F00000000000010000000001000000000100DB
:1023000000000001000000000100000000010000CA
:1023100000000100000000010000000001000000BA
:1023200000010000000001000000000100000000AA
:102330000100000000010000000001000000000199
:10234000000000000100000000010000000001008A
:10235000000000010000000001000000000100007A
:10236000000001000000000100000000010000006A
:10237000000100000000010000000001000000005A
:102380000100000000010000000001000000000149
:10239000000000000100000000010000000001003A
:1023A000000000010000000001000000000100002A
:1023B000000001000000000100000000010000001A
:1023C000000100000000010000000001000000000A
:1023D00001000000000100000000010000000001F9
:1023E00000000000010000000001000000000100EA
:1023F00000000001000000000100000000010000DA
:1024000000000100000000010000000001000000C9
:1024100000010000000001000000000100000000B9
:1024200001000000000100000000010000000001A8
:102430000000000001000000000100000000010099
:102440000000000100000000010000000001000089
:102450000000010000000001000000000100000079
:102460000001000000000100000000010000000069
:102470000100000000010000000001000000000158
:102480000000000001000000000100000000010049
:102490000000000100000000010000000001000039
:1024A0000000010000000001000000000100000029
:1024B0000001000000000100000000010000000019
:1024C0000100000000010000000001000000000108
:1024D00000000000010000000001000000000100F9
:1024E00000000001000000000100000000010000E9
:1024F00000000100000000010000000001000000D9
:1025000000010000000001000000000100000000C8
:1025100001000000000100000000010000000001B7
:1025200000000000010000000001000000000100A8
:102530000000000100000000010000000001000098
:102540000000010000000001000000000100000088
:102550000001000000000100000000010000000078
:102560000100000000010000000001000000000167
:102570000000000001000000000100000000010058
:102580000000000100000000010000000001000048
:102590000000010000000001000000000100000038
:1025A0000001000000000100000000010000000028
:1025B0000100000000010000000001000000000117
:1025C0000000000001000000000100000000010008
:1025D00000000001000000000100000000010000F8
:1025E00000000100000000010000000001000000E8
:1025F00000010000000001000000000100000000D8
:1026000001000000000100000000010000000001C6
:1026100000000000010000000001000000000100B7
:1026200000000001000000000100000000010000A7
:102630000000010000000001000000000100000097
:102640000001000000000100000000010000000087
:102650000100000000010000000001000000000176
:102660000000000001000000000100000000010067
:102670000000000100000000010000000001000057
:102680000000010000000001000000000100000047
:102690000001000000000100000000010000000037
:1026A0000100000000010000000001000000000126
:1026B0000000000001000000000100000000010017
:1026C0000000000100000000010000000001000007
:1026D00000000100000000010000000001000000F7
:1026E00000010000000001000000000100000000E7
:1026F00001000000000100000000010000000001D6
:1027000000000000010000000001000000000100C6
:1027100000000001000000000100000000010000B6
:1027200000000100000000010000000001000000A6
:102730000001000000000100000000010000000096
:102740000100000000010000000001000000000185
:102750000000000001000000000100000000010076
:10276000000000010000000001000000000100194D
:1027700000000A0B02090C0D0E08070304010000FB
:102780000000000000000000000000000000000049
:102790000000000000000000000000001211100006
:1027A0000000000000000000000000000000000029
:1027B0000000000000000102102020080810204046
:1027C00010204080020102010804020101020408F5
:1027D0001020408080402010080402018004020183
:1027E00080402010080402010804020101020408CC
:1027F00010204080010204081020408005050505D6
:10280000070508080808020202020A0A0808040468
:102810000404010101010101010103030303030396
:102820000303040707070C0C0C0C0C0C0C0C020225
:10283000020206060606060606060B0B0B0B0B0B22
:102840000B0B000020002300260029002C002F0085
:10285000320000010000030106010901000022000E
:10286000250028002B002E0031003400020100005A
:10287000050108010B0100002100240027002A00A7
:102880002D003000330001010000040107010A019E
:102890006C1DA21E0B2E11241FBECFEFD1E2DEBF96
:1028A000CDBF00E00CBF12E0A0E0B2E0E2EFF8E63E
:1028B00000E00BBF02C007900D92A234B107D9F718
:1028C00024E0A2E4B2E001C01D92AA3CB207E1F705
:1028D00018E2C6E9D8E200E006C022970109FE012D
:1028E0000BBF0E946434C039D10780E00807A9F704
:1028F0000E944F2E0C9477340C940000DC01ED9173
:10290000FC910190F081E02D19942EE637E242E02F
:1029100050E06CE178E086E30E9430262EE633E159
:1029200040E054E160E074E086E30E9430262EE649
:1029300033E040E050E160E070E086E30E94302642
:1029400026E533E048E150E06CE178E086E30C9462
:1029500030261F93CF93DF93D6E0C0E011E0C1276C
:102960006C2F8DE00E94D72B6C2F87E10E94D72B14
:102970006C2F89E10E94D72B6AEF70E080E090E035
:102980000E94942AD15059F761E08DE00E94D72B24
:1029900061E087E10E94D72B61E089E1DF91CF916F
:1029A0001F910C94D72B6BE170E08DE294E0A6DFD1
:1029B00064E173E08DE294E00E94992E6BE170E097
:1029C0008DE294E09BDF61E173E08DE294E00C9492
:1029D000992ECF92DF92EF92FF9288E492E00E94CC
:1029E000382740E060E088E492E00E943D27809133
:1029F0003603882319F06AE073E097C069EF72E04C
:102A000088E492E00E94992E41E060E088E492E040
:102A10000E943D27809138038130F1F030F0823000
:102A200091F1833009F446C088C062EF72E088E417
:102A300092E00E94992E40911D0350911E036091D7
:102A40001F037091200321E030E088E492E00E94AF
:102A5000AC3060EF72E069C06AEE72E088E492E048
:102A60000E94992E4091150350911603609117030F
:102A70007091180321E030E088E492E00E94AC30CD
:102A800068EE72E052C063EE72E088E492E00E9469
:102A9000992E40910D0350910E0360910F03709198
:102AA000100321E030E088E492E00E94AC3061EE57
:102AB00072E03BC06AED72E088E492E00E94992ED9
:102AC0004091090350910A0360910B0370910C032C
:102AD00021E030E088E492E00E94AC3068ED72E0E2
:102AE00088E492E00E94992EC0900903D0900A03D6
:102AF000E0900B03F0900C0320E030E040EA50E45B
:102B0000C701B6010E94133187FF03C064ED72E074
:102B10000CC020E030E04EEB52E4C701B6010E9449
:102B20006232181654F460ED72E088E492E0FF908F
:102B3000EF90DF90CF900C94992EFF90EF90DF9064
:102B4000CF900895CF93C82F809147028C17B1F092
:102B5000C13041F442E062EA70E086E30E948724DB
:102B600061E007C041E062EA70E086E30E948724EA
:102B700060E089E10E94D72BC0934702CF9108956E
:102B8000CF92DF92EF92FF920F931F936B017C0124
:102B900020E030E0A9010E941331882391F120E068
:102BA00030E048EC52E4C701B6010E9462321816C8
:102BB00034F4C12CD12C88ECE82E82E4F82E20E0ED
:102BC00030E048EC52E4C701B6010E9417316B01B6
:102BD0007C019B01AC0160E070E080E89FE30E9413
:102BE000AE308B019C0140E068E970E086E30E9412
:102BF000E8249701860141E069E970E086E30E94DC
:102C0000E8241F910F91FF90EF90DF90CF900895EF
:102C10008F929F92AF92BF92CF92DF92EF92FF92EC
:102C20006B017C019B01AC016091430270914402F5
:102C300080914502909146020E941331882309F445
:102C400046C020E030E0A901C701B6010E9413315F
:102C50008823B9F020E030E040E551E4C701B60137
:102C60000E94663220E030E048EC52E40E941731C6
:102C700020E030E040E85FE30E94AF304B015C01B0
:102C800006C0812C912C90E8A92E9FE3B92E20E05C
:102C900030E040E251E469E070E086E30E943F25C5
:102CA00084E690E00E94B92AA50194016CE070E0EE
:102CB00086E30E943F2584E690E00E94B92AC092F4
:102CC0004302D0924402E0924502F0924602FF9005
:102CD000EF90DF90CF90BF90AF909F908F9008952E
:102CE000CF93C82F80914202C81741F183E08093AF
:102CF0003803C13071F41092090310920A03109244
:102D00000B0310920C0360E070E0CB0139DF61E04F
:102D100010C040E050E068EC72E440930903509327
:102D20000A0360930B0370930C03CB01BA0128DFF5
:102D300060E087E10E94D72BC0934202CF910895B3
:102D4000CF92DF92EF92FF920F931F9386E30E9440
:102D5000252B90938C0280938B026C01E12CF12C3B
:102D600006E0CC0CDD1CEE1CFF1C0A95D1F720916F
:102D70008702309188024091890250918A02AFE324
:102D8000B0E00E945A34C60ED71EE81EF91ED701C5
:102D9000C60126E0B695A795979587952A95D1F710
:102DA0008093870290938802A0938902B0938A024D
:102DB000D701C6013CE0B695A795979587953A95BA
:102DC000D1F78093830290938402A0938502B093FD
:102DD000860290939C0280939B026091990270916D
:102DE0009A0244E050E00E94FE23811124C0109218
:102DF000380300919B0210919C0220E030E048ECE7
:102E000052E460E070E0CB010E94032360931D0355
:102E100070931E0380931F0390932003F9DE89E1D2
:102E200090E00E94B92A80919B0290919C0290931D
:102E30009A028093990287E30E94252B9093820245
:102E4000809381026C01E12CF12CE6E0CC0CDD1CBE
:102E5000EE1CFF1CEA95D1F720917D0230917E0295
:102E600040917F0250918002AFE3B0E00E945A345B
:102E7000C60ED71EE81EF91ED701C601F6E0B695AC
:102E8000A79597958795FA95D1F780937D029093B2
:102E90007E02A0937F02B0938002D701C6011CE09E
:102EA000B695A795979587951A95D1F7809379024E
:102EB00090937A02A0937B02B0937C029093980245
:102EC00080939702609195027091960244E050E0E1
:102ED0000E94FE2381114DC081E080933803009150
:102EE00097021091980220E030EA42E855E460E051
:102EF00070E086E494E40E940323609319037093C6
:102F00001A0380931B0390931C0300919702109166
:102F1000980220E030E048EC52E460E070E0CB0141
:102F20000E94032360931503709316038093170385
:102F3000909318038091190390911A03A0911B0399
:102F4000B0911C038093FE029093FF02A0930003B4
:102F5000B09301034EEE52E06DE970E086E30E940B
:102F600051258091970290919802909396028093B8
:102F7000950288E30E94252B909378028093770234
:102F80006C01E12CF12C56E0CC0CDD1CEE1CFF1C7E
:102F90005A95D1F7209173023091740240917502D5
:102FA00050917602AFE3B0E00E945A34C60ED71EAD
:102FB000E81EF91ED701C60166E0B695A79597955C
:102FC00087956A95D1F78093730290937402A093CA
:102FD0007502B0937602D701C6017CE0B695A7953D
:102FE000979587957A95D1F780936F0290937002A9
:102FF000A0937102B0937202909394028093930213
:10300000609191027091920244E050E00E94FE2390
:10301000811152C082E08093380300919302109195
:10302000940220E030E0A90160E070E080EA92ECD8
:103030000E94032360931103709312038093130380
:1030400090931403009193021091940220E030E0D9
:1030500048EC52E460E070E0CB010E9403236093EF
:103060000D0370930E0380930F039093100320E0E1
:1030700030E040EA51E460911103709112038091B5
:103080001303909114030E9417319B01AC0160E07F
:1030900070E080E291E40E94C9329B01AC0160EAD9
:1030A00070E086E30E9448258091930290919402FB
:1030B000909392028093910289E30E94252B909332
:1030C0006E0280936D026C01E12CF12C26E0CC0C99
:1030D000DD1CEE1CFF1C2A95D1F72091690230916E
:1030E0006A0240916B0250916C02AFE3B0E00E9423
:1030F0005A34C60ED71EE81EF91ED701C60136E0A7
:10310000B695A795979587953A95D1F780936902DB
:1031100090936A02A0936B02B0936C02D701C60130
:103120004CE0B695A795979587954A95D1F78093EA
:10313000650290936602A0936702B0936802909331
:10314000900280938F0260918D0270918E0244E014
:1031500050E00E94FE23811121C083E08093380358
:1031600000918F021091900220E030E048EC52E490
:1031700060E070E0CB010E94032360930903709329
:103180000A0380930B0390930C03FADC80918F0267
:103190009091900290938E0280938D0284E00E9421
:1031A0000C2C892BA9F461E08DE00E94D72B62E3FF
:1031B00070E080E090E00E94942A84E00E940C2C51
:1031C000892BE9F4809164028F5F8093640217C0B9
:1031D000809164029FEF980F993010F481E004C051
:1031E0008B50833120F482E08093630202C01092FE
:1031F00063021092640260E08DE00E94D72B809100
:103200006302813049F4809138038F5F80933803E3
:10321000843011F41092380382E10E940C2C892B27
:10322000C1F462E370E080E090E00E94942A82E1C1
:103230000E940C2C892B79F480916202813059F024
:1032400091E0909362028091350389278093350342
:1032500002C01092620283E10E940C2C892BC1F4FF
:1032600062E370E080E090E00E94942A83E10E9493
:103270000C2C892B79F480916102813059F091E016
:10328000909361028091360389278093360302C0B0
:10329000109261020E94652A609331037093320399
:1032A0008093330390933403C0902D03D0902E036A
:1032B000E0902F03F0903003DC01CB018C199D09C5
:1032C000AE09BF098A3F9105A105B10590F1809132
:1032D00060028F5F80936002803149F420E042E019
:1032E00060E188E492E00E9455271092600280918C
:1032F0003503F6DC8091360325DC8091380390910C
:103300003703981729F091E09093000280933703D8
:1033100060DB8091310390913203A0913303B0912F
:10332000340380932D0390932E03A0932F03B09327
:1033300030031F910F91FF90EF90DF90CF90089591
:1033400024E533E042E050E06CE178E086E30C9461
:1033500030269F92AF92BF92CF92DF92EF92FF9270
:103360000F931F93CF93DF9300D01F921F92CDB77F
:10337000DEB76CEB72E08DE294E00E94D72EE12C78
:10338000F12C00E014E045E0A42ECE0101966C0182
:10339000F6018A2D11928A95E9F7960145E0B80168
:1033A00086E30E945626D60180E090E097012259DC
:1033B0003C4EF901E80FF91F9490BD909B1409F45D
:1033C00042C04AE050E061E070E08DE294E00E948B
:1033D000BC2F6CE972E08DE294E00E94D72E62E986
:1033E00072E08DE294E00E94992E4AE050E0B8012C
:1033F0008DE294E00E94C12F67E872E08DE294E0D4
:103400000E94992E64E872E08DE294E00E94992E69
:1034100040E150E0692D8DE294E00E94A72F6AE719
:1034200072E08DE294E00E94992E67E772E08DE2EF
:1034300094E00E94992E40E150E06B2D8DE294E0E3
:103440000E94A72F2AC001968530910509F0B1CFBF
:103450000F5F1F4F84E690E00E94B92A95E0E90EC5
:10346000F11CE114E4E1FE0609F092CF6CE672E093
:103470008DE294E00E94D72E0F900F900F900F9046
:103480000F90DF91CF911F910F91FF90EF90DF9000
:10349000CF90BF90AF909F900895FFCFCF92DF92D3
:1034A000EF92FF920F931F93CF93DF9300D01F9261
:1034B000CDB7DEB766E572E08DE294E00E94D72ECC
:1034C000E12CF12C00E010E019821A821B821C8290
:1034D0009E012F5F3F4F44E0B80186E30E945626CD
:1034E000DE01119680E090E0970122593C4FF901EE
:1034F000E80FF91FD490CD90009719F44D2D4F701F
:10350000D42EDC1409F442C04AE050E061E070E0DF
:103510008DE294E00E94BC2F64E372E08DE294E0BF
:103520000E94D72E6AE272E08DE294E00E94992E0A
:103530004AE050E0B8018DE294E00E94C12F6FE1B3
:1035400072E08DE294E00E94992E6CE172E08DE2CF
:1035500094E00E94992E40E150E06D2D8DE294E0C0
:103560000E94A72F62E172E08DE294E00E94992E02
:103570006FE072E08DE294E00E94992E40E150E00D
:103580006C2D8DE294E00E94A72F26C00196843016
:10359000910509F0ACCF0F5F1F4F84E690E00E94C9
:1035A000B92A84E0E80EF11CE11440E1F40609F0C8
:1035B0008BCF62E072E08DE294E00E94D72E0F90F4
:1035C0000F900F900F90DF91CF911F910F91FF906F
:1035D000EF90DF90CF900895FFCF0F931F93CF937D
:1035E000DF93CDB7DEB768970FB6F894DEBF0FBE96
:1035F000CDBF6CEE71E08DE294E00E94D72E8E017B
:103600000F5F1F4F88E1F80111928A95E9F7980141
:1036100048E16CE178E086E30E945626E6E5F3E0B7
:10362000D80104911D91011316C0319683E0EE3646
:10363000F807B9F768E971E08DE294E00E94D72EAF
:1036400068960FB6F894DEBF0FBECDBFDF91CF9165
:103650001F910F9108954AE050E061E070E08DE223
:1036600094E00E94BC2F6AEC71E08DE294E00E942D
:10367000D72E60EC71E08DE294E00E94992E4AE032
:1036800050E06CE178E08DE294E00E94C12F65EBA0
:1036900071E08DE294E00E94992E62EB71E08DE280
:1036A00094E00E94992E40E150E0602F8DE294E07A
:1036B0000E94A72F68EA71E08DE294E00E94992EA3
:1036C00065EA71E08DE294E00E94992E40E150E0BD
:1036D000612F8DE294E00E94A72FFFCFEF92FF921F
:1036E0000F931F93CF93DF9361E08DE00E949E2B99
:1036F00061E087E10E949E2B61E087E10E94D72B69
:1037000061E089E10E949E2B61E089E10E94D72B54
:1037100062E082E10E949E2B62E083E10E949E2B88
:1037200026E040E052EC61E070E08DE294E00E941F
:10373000432D39D966E373E08DE294E00E94D72EE1
:1037400063E373E08DE294E00E94992E40E150E043
:103750006CE670E08DE294E00E94852F20E042E06C
:1037600060E188E492E00E94552740E060E088E450
:1037700092E00E943D2766E273E088E492E00E94B6
:10378000992E41E060E088E492E00E943D2768E1E4
:1037900073E088E492E00E94992E0E940D2461E07B
:1037A0008BE00E94D72B64E670E080E090E00E94FE
:1037B000942AABD864E170E080E090E00E94942A03
:1037C000C8DD65E070E080E090E00E94942A66DE4B
:1037D00065E070E080E090E00E94942AFEDE62E006
:1037E00070E080E090E00E94942AB3D8E090290332
:1037F000F0902A0300912B0310912C0320E030E07D
:1038000048EC52E460E070E0CB01B9D560931D0351
:1038100070931E0380931F0390932003E090250371
:10382000F0902603009127031091280320E030EA4E
:1038300042E855E460E070E086E494E4A0D560934B
:10384000190370931A0380931B0390931C03E09059
:103850000102F0900202009103021091040220E0A4
:1038600030E0A90160E070E080EA92EC88D56093D6
:103870001103709312038093130390931403E09049
:103880002103F0902203009123031091240320E0F0
:1038900030E048EC52E460E070E0CB0170D560931A
:1038A000090370930A0380930B0390930C0328EB96
:1038B0003EE145E350E463E070E086E30E943F258B
:1038C00084E690E00E94B92A80E090E0A0E8BFE39F
:1038D0008093DF029093E002A093E102B093E202B2
:1038E00080E090E0A4E3B4E48093E3029093E402E8
:1038F000A093E502B093E60285E08093EB0210927C
:10390000EC02C1E0C093ED0243ED52E064E070E0F0
:1039100086E30E94512584E690E00E94B92AE12CBA
:10392000F12C00EA10EC20E030E040EA50E467E0DF
:1039300070E086E30E94AC2484E690E00E94B92AFD
:1039400060911D0370911E0380911F0390912003CD
:103950005FD984E690E00E94B92A1092C4021092C6
:10396000C5021092C6021092C70280E090E8ABEB4D
:10397000B5E48093C8029093C902A093CA02B093A1
:10398000CB02D4E0D093D0021092D102C093D202E5
:1039900048EB52E06DE070E086E30E94512584E63A
:1039A00090E00E94B92A20E030E040EA50E460E173
:1039B00070E086E3D1D784E690E00E94B92A609156
:1039C000090370910A0380910B0390910C03D8D8DE
:1039D00084E690E00E94B92A1092A9021092AA02ED
:1039E0001092AB021092AC0280E090E8ABEBB6E430
:1039F0008093AD029093AE02A093AF02B093B00259
:103A0000D093B5021092B6021092B7024DE952E07F
:103A10006AE970E086E30E94512584E690E00E9406
:103A2000B92A1092FA021092FB021092FC02109234
:103A3000FD028091190390911A03A0911B03B0918C
:103A40001C038093FE029093FF02A0930003B093A7
:103A50000103D093060310920703C09308034EEEB0
:103A600052E06DE970E086E30E94512584E690E023
:103A70000E94B92A20E030E040EA51E4609111034D
:103A80007091120380911303909114030E941731D7
:103A90009B01AC0160E070E080E291E40E94C932D9
:103AA0009B01AC0160EA70E086E3F2D784E690E027
:103AB0000E94B92A45DC1092360341E062EA70E0C8
:103AC00086E325D760E089E1DF91CF911F910F91C7
:103AD000FF90EF900C94D72BCF92EF920F9367E06B
:103AE000C62E76E0E72E0EE02FE040E161E188E4AB
:103AF00092E00E94F8270F91EF90CF900895CA01AD
:103B000040914603442379F030934B0320934A03BA
:103B100070934E0360934D03909348038093470343
:103B200021E02093450308958091700390E0209157
:103B30007103821B91090895209171038091700394
:103B4000281750F4E22FF0E0EE58FC4F808190E00F
:103B50002F5F2093710308958FEF9FEF0895E091F9
:103B6000710380917003E81730F4F0E0EE58FC4FD9
:103B7000808190E008958FEF9FEF08950895CF9290
:103B8000DF92EF92FF920F931F93CF93DF937C010D
:103B9000CB018A0120914603222389F0EB016B01BE
:103BA000C40ED51ECC15DD0561F06991D701ED91EC
:103BB000FC910190F081E02DC7011995F3CF642F9E
:103BC000E1D1C801DF91CF911F910F91FF90EF904C
:103BD000DF90CF900895CF93DF931F92CDB7DEB7DC
:103BE0006983209146032223D1F02091490320329A
:103BF00040F021E030E0FC013383228380E090E05C
:103C000014C080914C03E82FF0E0E15BFC4F9981F8
:103C100090838F5F80934C038093490304C061E0DD
:103C2000CE010196AFD181E090E00F90DF91CF916E
:103C30000895FC011382128248EE53E060E070E0C8
:103C400044835583668377838EE092E091838083FB
:103C50000895109271031092700310924C03109209
:103C60004903109248031092470310924B0310929D
:103C70004A036BC09A01AB0160E074E284EF90E00C
:103C80000E94323420513109410951095695479516
:103C9000379527952093B8000895862F413208F074
:103CA00040E262E773E07FD010927103809370036B
:103CB000089521E0F2CF81E08093460360936F0383
:103CC00010924C031092490310924803109247033C
:103CD00010924B0310924A030895EF920F93809134
:103CE00045038823A9F02091470330914803409170
:103CF0004D0350914E0380914A0390914B03E62E61
:103D000001E0BC0180916F03E7D01092450309C028
:103D1000062F21E0409149036FE473E080916F0327
:103D200086D010924C031092490310924B031092CC
:103D30004A031092480310924703109246030F91D2
:103D4000EF90089589E393E074CF1092090481E025
:103D50008093060410920504109208041092DD036B
:103D60001092DC031092DA031092D9031092D80358
:103D70001092D7031092D60361E084E10E94D72B02
:103D800061E085E10E94D72BE9EBF0E080818E7F36
:103D9000808380818D7F808388E48093B80085E470
:103DA0008093BC000895413208F03FC0909109040F
:103DB0009111FCCF91E090930904209306042FEF1A
:103DC000209392031092DE03240F2093DB03909341
:103DD000070490910704880F892B80930704809132
:103DE0000504813041F4109205048091070480930A
:103DF000BB0085EC01C085EE8093BC008091090476
:103E00008130E1F38091DE03841710F44091DE03EA
:103E100021EE33E0FB01D9018A2F821B841718F4AD
:103E20008D918193F9CF842F089580E008950F93A9
:103E3000413208F048C0909109049111FCCF1092D2
:103E4000080492E090930904009306049FEF909376
:103E500092031092DE034093DB03FB0161EE73E0FB
:103E6000DB019A2F961B941718F491919D93F9CF2B
:103E70001092070490910704880F892B8093070400
:103E800080910504813041F410920504809107046B
:103E90008093BB0085EC01C085EE8093BC0022239B
:103EA00021F0809109048230E1F3809192038F3FE9
:103EB00061F080919203803251F0809192038033BF
:103EC00041F483E007C081E005C080E003C082E0E8
:103ED00001C084E00F910895EF920F93909109042F
:103EE0009111FCCF92E09093090491E09093080423
:103EF000E09206049FEF909392031092DD031092DC
:103F0000DC037093D8036093D7033093DA032093D4
:103F1000D9031092D6035093E0034093DF0310922D
:103F2000070490910704880F892B809307048091E0
:103F30000504813041F410920504809107048093B8
:103F4000BB0085EC01C085EE8093BC00002321F00E
:103F5000809109048230E1F3809192038F3F51F008
:103F600080919203803241F080919203803331F44A
:103F700083E005C080E003C082E001C084E00F91CF
:103F8000EF900895613298F420910904243089F467
:103F90006093B403FC0186EB93E0DC012A2F281B1D
:103FA000261718F421912D93F9CF80E0089581E030
:103FB000089582E0089585ED8093BC008091BC0057
:103FC00084FDFCCF10920904089585EC8093BC0019
:103FD0001092090408951F920F920FB60F921124A8
:103FE0000BB60F922F933F934F935F936F937F93F3
:103FF0008F939F93AF93BF93EF93FF938091B900FB
:10400000887F803609F4EEC068F5883209F45BC019
:1040100090F4803109F454C038F4882309F445C180
:10402000883009F44DC044C1883109F44CC0803255
:1040300009F4AFC03DC1803409F4BAC048F48033FC
:1040400009F4A7C0883309F033C180939203F9C003
:10405000803509F4A1C0883509F4AFC0883409F06F
:1040600027C125C1883909F416C1A8F4883709F495
:10407000B9C038F4883609F4B5C0803709F4B2C045
:1040800017C1883809F407C1803909F4B1C08038F4
:1040900009F00EC1ADC0803B09F4D5C038F4803AB8
:1040A00009F4B8C0883A09F4CEC002C1803C09F4D2
:1040B000F6C0883C09F4F3C0883B09F4D9C0F8C0C5
:1040C0008091070415C080910804811115C090915A
:1040D000DE038091DB03981708F07BC0E091DE03DC
:1040E00081E08E0F8093DE03F0E0EF51FC4F808182
:1040F0008093BB0085ECD0C040910804413009F0AA
:10410000D7C02091DC033091DD038091D9039091D9
:10411000DA0328173907B0F58091D6038230D8F436
:104120008091D603811107C08091D7039091D80365
:104130009093BB000AC08091D603813031F4809106
:10414000D7039091D8038093BB008091D6038F5FF3
:104150008093D603CFCFE091DF03F091E003CF014E
:1041600001969093E0038093DF03E491E093BB001A
:104170008091DC039091DD0301969093DD038093A1
:10418000DC03B8CF80910604811191C040930504EF
:1041900027C0809392038BC0E091DE0381E08E0FF5
:1041A0008093DE038091BB00F0E0EF51FC4F8083F1
:1041B0009091DE038091DB036BC0E091DE0381E030
:1041C0008E0F8093DE038091BB00F0E0EF51FC4F37
:1041D00080838091060481116AC081E08093050488
:1041E00084EA5EC083E0809309041092930382CF37
:1041F00080919303803208F04EC0E091930381E0F8
:104200008E0F809393038091BB00F0E0EC56FC4F3F
:10421000808370CF80919303803230F4E0919303D8
:10422000F0E0EC56FC4F1082C6DE6091930370E024
:10423000E0910104F091020484E993E01995109251
:104240009303C3DE35C084E0809309041092B50364
:104250001092B403E0910304F09104041995809145
:10426000B403811105C081E08093B4031092B603BA
:10427000E091B50381E08E0F8093B503F0E0EA543E
:10428000FC4F80818093BB009091B5038091B40373
:10429000981708F42FCF85E88093BC0009C085ECFF
:1042A0008093BC001092090403C01092920383DE35
:1042B000FF91EF91BF91AF919F918F917F916F91FE
:1042C0005F914F913F912F910F900BBE0F900FBEBA
:1042D0000F901F90189583E00E940C2C80930F0480
:1042E00082E00E940C2C80930E0480910D04809338
:1042F0000C0480910F0490910E04880F892B8093F9
:104300000D0490910D0480910C0489278330B1F144
:1043100090910D0480910C04981301C00895809130
:104320000C0420910D0481702695217090910B044E
:1043300082130EC0903111F18091100490911104FC
:10434000A0911204B09113040197A109B1090DC005
:104350009130A1F08091100490911104A091120469
:10436000B09113040196A11DB11D80931004909388
:104370001104A0931204B0931304089508952F928A
:104380003F924F925F926F927F928F929F92AF92E5
:10439000BF92CF92DF92EF92FF920F931F93CF9332
:1043A000DF93762E872E982EA92EB22ED32FC42FD0
:1043B000652E6701780120E030E0A9010E941331E9
:1043C00087FF41C020E030E0A9016B2D7D2F8C2FAD
:1043D000962D0E9413311816B4F1F7FEF7C0662728
:1043E0007727CB016C197D098E099F090E94B23194
:1043F0006B017C012B2D3D2F4C2F562D672D782DD9
:10440000892D9A2D0E94AE309B01AC01C701B601E7
:104410000E9466326B017C01609105027091060278
:1044200080910702909108020E94B2319B01AC0179
:10443000C701B6010E9417312B2D3D2F4C2F562D51
:104440000E94AF30B7C020E030E0A901672D782D81
:10445000892D9A2D0E94623287FD3CC020E030E019
:10446000A9016B2D7D2F8C2F962D0E94623218167C
:104470008CF5F7FC78C0C701B6010E94B2316B0120
:104480007C01272D382D492D5A2D6B2D7D2F8C2FFA
:10449000962D0E94AE301B012C0160910502709197
:1044A000060280910702909108020E94B2319B019E
:1044B000AC01C201B1010E9417319B01AC01C701DF
:1044C000B6010E946632272D382D492D5A2D0E94A3
:1044D000AF303DC020E030E0A901672D782D892D57
:1044E0009A2D0E94133187FF77C020E030E0A901A8
:1044F0006B2D7D2F8C2F962D0E94623218160CF09A
:104500006BC0F7FC34C0C114D104E104F10409F418
:104510005FC0C701B6010E94B2316B017C0160919E
:1045200005027091060280910702909108020E9494
:10453000B2319B01AC016B2D7D2F8C2F962D0E94EB
:1045400017319B01AC01C701B6010E946632762E7D
:10455000872E982EA92E2B2D3D2F4C2F562D0E94A5
:10456000623218169CF1B72CD82DC92D35C066279C
:104570007727CB016C197D098E099F090E94B23102
:104580006B017C0160910502709106028091070227
:10459000909108020E94B2319B01AC01672D782DE9
:1045A000892D9A2D0E9417319B01AC01C701B601DC
:1045B0000E946632B62ED72FC82F692E272D382D90
:1045C000492D5A2D0E94133187FDCDCFA62C04C052
:1045D000B12CD0E0C0E0A12C6B2D7D2F8C2F9A2D1B
:1045E000DF91CF911F910F91FF90EF90DF90CF90CF
:1045F000BF90AF909F908F907F906F905F904F9003
:104600003F902F9008954F925F926F927F928F927A
:104610009F92AF92BF92CF92DF92EF92FF920F9351
:104620001F93CF93DF9300D01F92CDB7DEB76B01FE
:104630007C0149015A0120E030E0A9010E941331B8
:1046400087FF3EC020E030E0A901C501B4010E940F
:1046500013311816ACF1B80180E090E00E94B0313F
:1046600069837A838B839C8320E030E0A901C701B2
:10467000B6010E94623226013701181624F077FA3B
:10468000709477F8709420E030E0A901C501B4017E
:104690000E946232A501940118160CF05058C30113
:1046A000B2010E94AE3020E030E040E85AE30E94C0
:1046B00066329B01AC0169817A818B819C8129C022
:1046C00020E030E0A901C701B6010E94623287FDF7
:1046D00027C020E030E0A901C501B4010E94623288
:1046E0001816F4F4B80180E090E00E94B0312B017C
:1046F0003C01A7019601C501B4010E94AE309B01A7
:10470000AC01C301B2010E94663220E030E040E813
:104710005AE30E946632A70196010E94AF3051C051
:1047200020E030E0A901C701B6010E94133187FFE4
:104730004CC020E030E0A901C501B4010E94623202
:1047400018160CF042C0B80180E090E00E94B03131
:104750002B013C0120E030E040E054E40E94623252
:1047600087FD17C020E030E040E054E4C301B2010F
:104770000E94AE306B017C0120E030E040E05BE362
:10478000C501B4010E9466329B01AC01C701B601AC
:1047900016C0A301920160E070E080E094E40E9402
:1047A000AE304B015C0120E030E040E05BE3C7014C
:1047B000B6010E9466329B01AC01C501B4010E94A2
:1047C0006632562F472F382F292F652F742F832FAE
:1047D000922F0F900F900F900F90DF91CF911F911C
:1047E0000F91FF90EF90DF90CF90BF90AF909F9090
:1047F0008F907F906F905F904F9008959B01240F52
:10480000351F8217930734F4641B750B21E068177A
:1048100079070CF020E0822F089560E084E08ED7C5
:1048200060E083E08BD760E082E088D741E050E031
:104830006BE671E280E006D441E050E06BE671E2A5
:1048400081E000D461E08CE079D761E08BE076D73D
:1048500060E08CE0ACD760E08BE0A9D789E393E01F
:10486000F8D940E85AE166E070E089E393E002DAC3
:104870006AE070E080E090E057C6CF93DF93EA01F2
:1048800020E030E040E05BE40E9466320E947F312D
:10489000988389837A836B83DF91CF910895EF9218
:1048A000FF920F931F93CF93DF9300D0CDB7DEB766
:1048B000062F142F682F89E393E02A833B837983A3
:1048C000FAD97981672F89E393E085D9602F89E34D
:1048D00093E081D92A81022FE22E3B81F32E8E2D87
:1048E000801B811738F4F70161917F0189E393E020
:1048F00072D9F5CF61E089E393E00F900F900F90AC
:10490000DF91CF911F910F91FF90EF90E6C9CF9368
:10491000DF9300D01F92CDB7DEB7FB01442341F0F7
:1049200050E060E070E0415051096109710903C035
:1049300040E050E0BA0119821A821B824C839E012A
:104940002F5F3F4F44E0BF01AADF0F900F900F9001
:104950000F90DF91CF9108959F92AF92BF92CF9227
:10496000DF92EF92FF920F931F93CF93DF93CDB718
:10497000DEB728970FB6F894DEBF0FBECDBF982ED6
:104980005B01CA01B90167017801AE014F5F5F4F5A
:1049900074DFAE014B5F5F4FC701B6016EDF9E0152
:1049A0002F5F3F4F48E0B501892D79DF28960FB67C
:1049B000F894DEBF0FBECDBFDF91CF911F910F9155
:1049C000FF90EF90DF90CF90BF90AF909F900895B1
:1049D000AF92BF92CF92DF92EF92FF920F931F930D
:1049E000CF93DF9300D01F921F92CDB7DEB7B82EC2
:1049F000A42E6801790179836A8360910A0470E0CA
:104A00006B5E774F9E012F5F3F4F42E048DF198278
:104A1000AE014E5F5F4FC701B6012FDF60910A0400
:104A200070E0605F774F9E012F5F3F4F45E08B2D19
:104A300036DF80910A048F5F80930A04A11002C0C0
:104A4000853069F419828CE38A839E012F5F3F4F82
:104A500042E06CE178E08B2D22DF10920A040F9087
:104A60000F900F900F900F90DF91CF911F910F91AA
:104A7000FF90EF90DF90CF90BF90AF9008950F938D
:104A80001F9389019A0141E0A3DF1F910F910895BF
:104A90000F931F9389019A0141E09ADF1F910F91B3
:104AA00008952F923F924F925F926F927F928F92D2
:104AB0009F92AF92BF92CF92DF92EF92FF920F93AD
:104AC0001F93CF93DF93CDB7DEB729970FB6F89436
:104AD000DEBF0FBECDBF89831B018A012AED3FE0F7
:104AE00049EC50E4F80160897189828993890E94B8
:104AF000663220E030E84BEB57E40E9417316E83BA
:104B00007F838887998720E030E040EA51E4F8010C
:104B100064857585868597850E9417319B01AC0158
:104B200060E070E080E291E40E94C9326A837B8396
:104B30008C839D83F801808D843031F1853009F0BC
:104B400045C02E813F814885598550586DEC7CECDD
:104B50008CE290E40E94C9326B017C019B01AC01A4
:104B60006A817B818C819D810E9466324B015C0150
:104B7000C701B60190582A813B814C815D810E941A
:104B800066322B013C0122C02E813F814885598528
:104B900050586DEC7CEC8CE290E40E94C9326B01C1
:104BA0007C019B01AC0160E070E080E89FE30E9423
:104BB000AE309B01AC016A817B818C819D810E941A
:104BC00066324B015C01412C512C3201F801828D7F
:104BD000813061F4818D8823A1F0B7FAB094B7F8E1
:104BE000B09477FA709477F870940BC0C12CD12CE4
:104BF000760126013701812C912C50E8A52E5FE328
:104C0000B52E9501840140E0B1018981E1DEB10159
:104C10006F5F7F4F9301820140E08981D9DEB1014E
:104C20006E5F7F4F9701860141E08981D1DE299631
:104C30000FB6F894DEBF0FBECDBFDF91CF911F91AD
:104C40000F91FF90EF90DF90CF90BF90AF909F902B
:104C50008F907F906F905F904F903F902F9008952E
:104C6000EF92FF920F931F93CF93DF931F921F92A8
:104C7000CDB7DEB78B017901682F89E393E04983D3
:104C80005A8319D8980149815A81B70189E393E081
:104C90000E947F1D61E089E393E00F900F90DF9108
:104CA000CF911F910F91FF90EF9017C8CF92DF9295
:104CB000FF920F931F93CF93DF931F921F92CDB755
:104CC000DEB7F82ED62E8901682F89E393E04A8358
:104CD00079830E945B1E7981672F89E393E00E94AC
:104CE000EB1D6D2D89E393E00E94EB1D60E089E3ED
:104CF00093E00E946D1E4A816F2D89E393E00E942C
:104D0000591ED12C89E393E00E94941D892B79F0E0
:104D1000FF24F394FD0CC8018D0D911D6C0189E3F6
:104D200093E00E949C1DF6018083DF2CEBCF0F9057
:104D30000F90DF91CF911F910F91FF90DF90CF9057
:104D40000895CF93DF93EC0160E08E8130D581E050
:104D500090E00FD461E08E812AD581E090E009D403
:104D600060E08E8124D584E690E0DF91CF9101C48C
:104D7000CF92DF92EF92FF920F931F93CF93DF9327
:104D80007C01C0E0D0E0C62ED12C87010C0F1D1F86
:104D900061E0F8018781D2D4B6010C2E02C075956E
:104DA00067950A94E2F76170F801878100D5219632
:104DB000C430D10551F7C701DF91CF911F910F91F9
:104DC000FF90EF90DF90CF90BCCFCF92DF92EF9229
:104DD000FF920F931F93CF93DF937C01C0E0D0E04D
:104DE000C62ED12C87010C0F1D1F61E0F8018781B1
:104DF000A5D4B6010C2E02C0759567950A94E2F70A
:104E00006170F8018781D3D42196C830D10551F75C
:104E1000C701DF91CF911F910F91FF90EF90DF902D
:104E2000CF908FCF1F93CF93DF93EC01162F642F7A
:104E30008C81BDD48D818F3F11F060E0B8D48F8517
:104E4000612F84FF05C0CE01DF91CF911F91BDCFAF
:104E500070E084E0759567958A95E1F7CE0188DF6B
:104E6000612FCE01DF91CF911F9182CF40E0DACF49
:104E700061E0FCDF80ED97E07CC3443008F043E064
:104E8000FC012389421710F04FEF420FFC01E40FA1
:104E9000F11D2489260F2068622FE8CFFC0160896C
:104EA000262F2460208B6C60E1CFCF93DF93EC0141
:104EB000423018F08F8588608F874B8B1C8A80E486
:104EC0008D8B6E8B70E0605C7F4F6F8B222329F09F
:104ED000413019F48F8584608F8780E593EC49D346
:104EE00060E08C8164D460E08E8161D48D818F3FDD
:104EF00011F060E05CD46F8564FD16C063E0CE0104
:104F000037DF84E991E135D363E0CE0131DF84E915
:104F100091E12FD363E0CE012BDF86E990E029D326
:104F200062E0CE0125DF11C06062CE019FDF84E91F
:104F300091E11FD36F856062CE0198DF86E990E032
:104F400018D36F856062CE0191DF6F856062CE01FC
:104F50008DDF84E0888BCE01A1DFCE0189DF82E086
:104F6000898B66E0CE01DF91CF9180CF6F927F92E7
:104F70008F92AF92CF92EF920F931F93CF93DF93C5
:104F8000CDB7DEB73C01162F842F5E854F8538895B
:104F90009989F301848325830683E782C086A186ED
:104FA0008286538744873587968761E0C7D3F301AC
:104FB00085818F3F11F061E0C1D361E0F30186810B
:104FC000BDD3112319F0F301178603C080E1F3016B
:104FD000878720E041E060E1C301DF91CF911F911D
:104FE0000F91EF90CF90AF908F907F906F905DCFAB
:104FF0008F92AF92CF92EF920F93DC0113961C9297
:105000001E921297E0E2F2E0ED93FC931F921F9242
:105010001F921F928C2CAE2CC02EE22E042F2FEF4D
:10502000462F61E0A3DF0F900F900F900F900F912C
:10503000EF90CF90AF908F90089541E0F3DE81E044
:1050400090E00895883008F06DC0E82FF0E0EE0F92
:10505000FF1FEC5EFB4F7183608390E0FC01319792
:10506000E730F10590F5EE58FF4F0C9454348091E1
:1050700069008C7F842B80936900E89A0895809161
:105080006900440F551F440F551F837F842B809365
:105090006900E99A08958091690074E0440F551FF2
:1050A0007A95E1F78F7C842B80936900EA9A0895C2
:1050B0008091690066E0440F551F6A95E1F78F7390
:1050C000842B80936900EB9A089580916A008C7F0D
:1050D000842B80936A00EC9A089580916A00440FB3
:1050E000551F440F551F837F842B80936A00ED9AD0
:1050F000089580916A0024E0440F551F2A95E1F736
:105100008F7C842B80936A00EE9A089580916A00C8
:1051100096E0440F551F9A95E1F78F73842B809387
:105120006A00EF9A08951F920F920FB60F92112402
:105130000BB60F922F933F934F935F936F937F9391
:105140008F939F93AF93BF93EF93FF938091180436
:1051500090911904892B29F0E0911804F091190419
:105160001995FF91EF91BF91AF919F918F917F9191
:105170006F915F914F913F912F910F900BBE0F90C8
:105180000FBE0F901F9018951F920F920FB60F929F
:1051900011240BB60F922F933F934F935F936F930E
:1051A0007F938F939F93AF93BF93EF93FF938091E0
:1051B0001A0490911B04892B29F0E0911A04F091B4
:1051C0001B041995FF91EF91BF91AF919F918F9122
:1051D0007F916F915F914F913F912F910F900BBEF7
:1051E0000F900FBE0F901F9018951F920F920FB641
:1051F0000F9211240BB60F922F933F934F935F930F
:105200006F937F938F939F93AF93BF93EF93FF938E
:1052100080911C0490911D04892B29F0E0911C04BD
:10522000F0911D041995FF91EF91BF91AF919F915E
:105230008F917F916F915F914F913F912F910F903F
:105240000BBE0F900FBE0F901F9018951F920F92DC
:105250000FB60F9211240BB60F922F933F934F93DB
:105260005F936F937F938F939F93AF93BF93EF93CE
:10527000FF9380911E0490911F04892B29F0E091E7
:105280001E04F0911F041995FF91EF91BF91AF910A
:105290009F918F917F916F915F914F913F912F914E
:1052A0000F900BBE0F900FBE0F901F9018951F927E
:1052B0000F920FB60F9211240BB60F922F933F93BC
:1052C0004F935F936F937F938F939F93AF93BF930E
:1052D000EF93FF938091140490911504892B29F08A
:1052E000E0911404F09115041995FF91EF91BF918D
:1052F000AF919F918F917F916F915F914F913F916E
:105300002F910F900BBE0F900FBE0F901F9018950E
:105310001F920F920FB60F9211240BB60F922F937C
:105320003F934F935F936F937F938F939F93AF932D
:10533000BF93EF93FF938091160490911704892BEC
:1053400029F0E0911604F09117041995FF91EF915F
:10535000BF91AF919F918F917F916F915F914F918D
:105360003F912F910F900BBE0F900FBE0F901F908B
:1053700018951F920F920FB60F9211240BB60F9231
:105380002F933F934F935F936F937F938F939F934D
:10539000AF93BF93EF93FF938091200490912104EA
:1053A000892B29F0E0912004F09121041995FF91B7
:1053B000EF91BF91AF919F918F917F916F915F918D
:1053C0004F913F912F910F900BBE0F900FBE0F90FA
:1053D0001F9018951F920F920FB60F9211240BB6C3
:1053E0000F922F933F934F935F936F937F938F937E
:1053F0009F93AF93BF93EF93FF938091220490917B
:105400002304892B29F0E0912204F09123041995BB
:10541000FF91EF91BF91AF919F918F917F916F918C
:105420005F914F913F912F910F900BBE0F900FBE48
:105430000F901F9018951F920F920FB60F92112484
:105440002F933F938F939F93AF93BF9380912504A6
:1054500090912604A0912704B0912804309124044F
:1054600023E0230F2D3720F40196A11DB11D05C0A7
:1054700026E8230F0296A11DB11D209324048093DA
:10548000250490932604A0932704B09328048091C8
:10549000290490912A04A0912B04B0912C04019628
:1054A000A11DB11D8093290490932A04A0932B047D
:1054B000B0932C04BF91AF919F918F913F912F9109
:1054C0000F900FBE0F901F9018952FB7F894609112
:1054D00025047091260480912704909128042FBF01
:1054E00008953FB7F8948091290490912A04A091DF
:1054F0002B04B0912C0426B5A89B05C02F3F19F0B2
:105500000196A11DB11D3FBF6627782F892F9A2FC5
:10551000620F711D811D911D42E0660F771F881F6C
:10552000991F4A95D1F70895CF92DF92EF92FF929B
:10553000CF93DF936B017C01D4DFEB01C114D10465
:10554000E104F10479F009D6CCDF6C1B7D0B683ED9
:105550007340A0F381E0C81AD108E108F108C851EE
:10556000DC4FECCFDF91CF91FF90EF90DF90CF90A9
:105570000895019739F0880F991F880F991F029796
:105580000197F1F70895789484B5826084BD84B55D
:10559000816084BD85B5826085BD85B5816085BD2E
:1055A000EEE6F0E0808181608083E1E8F0E0108247
:1055B000808182608083808181608083E0E8F0E088
:1055C000808181608083E1EBF0E080818460808372
:1055D000E0EBF0E0808181608083E1E9F0E08081B0
:1055E00082608083808181608083E0E9F0E0808157
:1055F00081608083E1EAF0E0808182608083808145
:1056000081608083E0EAF0E0808181608083E1E274
:10561000F1E0808182608083808181608083E0E22C
:10562000F1E0808181608083EAE7F0E0808184603E
:10563000808380818260808380818160808380819B
:10564000806880831092C1000895863308F08653E5
:1056500020917B00982F9870277F922B90937B004E
:1056600087702091090290E4299F90011124822BD8
:1056700080937C0080917A00806480937A0080918E
:105680007A0086FDFCCF809178002091790090E02F
:10569000922B089590E0FC013197E231F10508F07A
:1056A0004CC0E758FF4F0C945434809180008F77A2
:1056B00003C0809180008F7D809380000895809149
:1056C0008000877FF9CF84B58F7702C084B58F7D46
:1056D00084BD08958091B0008F7703C08091B000A1
:1056E0008F7D8093B0000895809190008F7707C0E0
:1056F000809190008F7D03C080919000877F809380
:10570000900008958091A0008F7707C08091A0003D
:105710008F7D03C08091A000877F8093A0000895B3
:10572000809120018F7707C0809120018F7D03C079
:1057300080912001877F809320010895CF93DF938C
:1057400090E0FC01EA54F84D2491FC01E450F84D3E
:105750008491882349F190E0880F991FFC01EA5851
:10576000F74DA591B491845A974DFC01C591D49100
:105770009FB7611108C0F8948C91209582238C9377
:10578000888182230AC0623051F4F8948C91322FC0
:10579000309583238C938881822B888304C0F8946E
:1057A0008C91822B8C939FBFDF91CF9108950F93A3
:1057B0001F93CF93DF931F92CDB7DEB7282F30E032
:1057C000F901E059F84D8491F901EA54F84D14912A
:1057D000F901E450F84D04910023C1F0882319F039
:1057E000698358DF6981E02FF0E0EE0FFF1FE45A74
:1057F000F74DA591B4919FB7F8948C91611103C0B6
:105800001095812301C0812B8C939FBF0F90DF9156
:10581000CF911F910F910895CF93DF93282F30E000
:10582000F901E059F84D8491F901EA54F84DD49109
:10583000F901E450F84DC491CC2389F081112ADF9D
:10584000EC2FF0E0EE0FFF1FEE5BF74DA591B4914A
:105850002C912D2381E090E021F480E002C080E0D3
:1058600090E0DF91CF910895FC01818D228D90E031
:10587000805C9F4F821B91098F7399270895FC01CB
:10588000918D828D981731F0828DE80FF11D858DF5
:1058900090E008958FEF9FEF0895FC01918D828D28
:1058A000981761F0828DDF01A80FB11D5D968C9174
:1058B000928D9F5F9F73928F90E008958FEF9FEF7F
:1058C000089582E09EE2892B39F080E090E0892BF8
:1058D00019F098D1811125C080E090E0892B41F02A
:1058E00080E090E0892B21F00E94000081111CC013
:1058F00080E090E0892B41F080E090E0892B21F05E
:105900000E940000811113C080E090E0892BA1F07B
:1059100080E090E0892B81F00E94000081110AC094
:1059200008950E940000D8CF0E940000E1CF0E949D
:105930000000EACF0C9400000895FC01848DDF0183
:10594000A80FB11DA35ABF4F2C91848D90E00196F2
:105950008F739927848FA689B7892C93A089B189E1
:105960008C9180648C93938D848D981306C00288EB
:10597000F389E02D80818F7D80830895CF93DF931D
:10598000EC01888D8823C1F0EA89FB89808185FD3F
:1059900005C0A889B9898C9186FD0EC00FB607FC99
:1059A000F5CF808185FFF2CFA889B9898C9185FFD9
:1059B000EDCFCE01C2DFE8CFDF91CF910895CF9236
:1059C000DF92FF920F931F93CF93DF931F92CDB778
:1059D000DEB76C01DC015B969C915B975C968C91C9
:1059E0005C97981307C05096ED91FC915197808178
:1059F00085FD31C0F601038D10E00F5F1F4F0F735F
:105A00001127F02EF601848DF81210C00FB607FC96
:105A1000F9CFD6015096ED91FC915197808185FF89
:105A2000F1CFC601698389DF6981ECCF838DE80FEF
:105A3000F11DE35AFF4F6083D6015B960C935B9791
:105A40005296ED91FC91539780818062808381E032
:105A500058968C930DC0D6015696ED91FC915797B0
:105A600060835096ED91FC91519780818064808392
:105A700081E090E00F90DF91CF911F910F91FF9007
:105A8000DF90CF900895BF92CF92DF92EF92FF9276
:105A9000CF93DF93EC016A017B01B22EE889F9898B
:105AA00082E08083411581EE58076105710599F008
:105AB00060E079E08DE390E0A7019601D3D6215014
:105AC0003109410951095695479537952795211573
:105AD00080E1380790F0E889F989108260E874E87D
:105AE0008EE190E0A7019601BDD621503109410910
:105AF00051095695479537952795EC85FD85308357
:105B0000EE85FF852083188EEC89FD89B082EA89B5
:105B1000FB89808180618083EA89FB89808188603C
:105B20008083EA89FB89808180688083EA89FB8998
:105B300080818F7D8083DF91CF91FF90EF90DF9008
:105B4000CF90BF9008951F920F920FB60F9211241D
:105B50000BB60F922F938F939F93EF93FF93E09148
:105B60003D04F0913E048081E0914304F0914404AF
:105B700082FD12C09081809146048F5F8F732091C7
:105B80004704821751F0E0914604F0E0E35DFB4FDB
:105B9000958F8093460401C08081FF91EF919F9182
:105BA0008F912F910F900BBE0F900FBE0F901F90F3
:105BB00018951F920F920FB60F9211240BB60F92E9
:105BC0002F933F934F935F936F937F938F939F9305
:105BD000AF93BF93EF93FF938DE294E0AEDEFF911E
:105BE000EF91BF91AF919F918F917F916F915F9155
:105BF0004F913F912F910F900BBE0F900FBE0F90C2
:105C00001F9018958DE294E02FDE21E0892B09F496
:105C100020E0822F08951092300410922F0488EE15
:105C200093E0A0E0B0E08093310490933204A0931D
:105C30003304B093340488E292E090932E0480936E
:105C40002D0485EC90E090933A048093390484EC21
:105C500090E090933C0480933B0480EC90E0909320
:105C60003E0480933D0481EC90E090934004809347
:105C70003F0482EC90E0909342048093410486ECD0
:105C800090E0909344048093430410924604109251
:105C9000470410924804109249040895089573DC53
:105CA000FDDF0E946E1BC1E6DCE20E94A016209779
:105CB000E1F307DEFACFCF92DF92EF92FF920F93DC
:105CC0001F93CF93DF936C017A01EB01E60EF71E71
:105CD00000E010E0CE15DF0561F06991D601ED918D
:105CE000FC910190F081E02DC6011995080F191F54
:105CF000F1CFC801DF91CF911F910F91FF90EF90ED
:105D0000DF90CF9008956115710581F0DB010D9052
:105D10000020E9F7AD0141505109461B570BDC014A
:105D2000ED91FC910280F381E02D199480E090E0E8
:105D30000895EF92FF920F931F93CF93DF938C01FF
:105D4000FB01C0E0D0E064917F018FEFE81AF80A10
:105D5000662361F0D801ED91FC910190F081E02D76
:105D6000C8011995C80FD91FF701EDCFCE01DF91FA
:105D7000CF911F910F91FF90EF900895DC01ED916D
:105D8000FC910190F081E02D19940F931F93CF9314
:105D9000DF93EC016DE0F2DF8C016AE0CE01EEDF13
:105DA000800F911FDF91CF911F910F9108950F9355
:105DB0001F93CF93DF93EC01BCDF8C01CE01E5DFB5
:105DC000800F911FDF91CF911F910F9108958F92B6
:105DD0009F92AF92BF92CF92DF92EF92FF920F937A
:105DE0001F93CF93DF93CDB7DEB7A1970FB6F8948B
:105DF000DEBF0FBECDBF7C01C42EE52FCB01D22E5E
:105E000019A221E02D1510F02AE0D22E8E010F5D8F
:105E10001F4F8D2C912CA12CB12C6C2D7E2FA50108
:105E2000940120D58C2DD29E801911240150110986
:105E30008A3014F4805D01C0895CF80180832115EB
:105E400031054105510521F0C22EE32FCA01E5CFEE
:105E5000B801C70158DFA1960FB6F894DEBF0FBE98
:105E6000CDBFDF91CF911F910F91FF90EF90DF9009
:105E7000CF90BF90AF909F908F900895CF92DF9278
:105E8000EF92FF920F931F93CF93DF93EC016A0180
:105E90007B012115310579F4E881F9810190F081C8
:105EA000E02D642FDF91CF911F910F91FF90EF9024
:105EB000DF90CF9019942A303105D9F477FF18C0BC
:105EC0006DE25CDF8C0144275527BA014C195D094E
:105ED0006E097F092AE0CE017ADF800F911FDF91E2
:105EE000CF911F910F91FF90EF90DF90CF90089589
:105EF0002AE0B701A601CE01DF91CF911F910F914A
:105F0000FF90EF90DF90CF9062CF0F931F93CF93CE
:105F1000DF93EC019A01AB01662757FD6095762F60
:105F2000ADDF8C01CE0131DF800F911FDF91CF916A
:105F30001F910F9108952115310541F4DC01ED9178
:105F4000FC910190F081E02D642F199440CF0F93C4
:105F50001F93CF93DF93EC019A01462F50E060E04E
:105F600070E0E9DF8C01CE0110DF800F911FDF911F
:105F7000CF911F910F9108959A01AB0160E070E0FD
:105F8000DACF0F931F93CF93DF93EC019A01AB010C
:105F900060E070E0D0DF8C01CE01F7DE800F911F52
:105FA000DF91CF911F910F9108954F925F926F9261
:105FB0007F928F929F92AF92BF92CF92DF92EF9299
:105FC000FF920F931F93CF93DF93EC016A017B0144
:105FD000B22E9A01AB01C701B60127D3882319F06D
:105FE00064E372E024C026013701E89477F82FEFCC
:105FF0003FEF4FE75FE7C301B20117D381110CC038
:106000002FEF3FEF4FE75FE7C301B2010CD1181646
:106010001CF468E372E00BC02FEF3FEF4FE75FE443
:10602000C701B6014FD21816A4F46CE372E0CE019A
:10603000DF91CF911F910F91FF90EF90DF90CF9064
:10604000BF90AF909F908F907F906F905F904F9098
:106050005ACE2FEF3FEF4FE75FECC701B601E3D019
:1060600087FDE3CF20E030E0A901C701B601DBD016
:1060700087FF09C06DE2CE0181DE8C01F7FAF09452
:10608000F7F8F09402C000E010E0A12C60E070E0AE
:1060900080E09FE3AB1439F020E030E040E251E4CF
:1060A000C6D0A394F7CF9B01AC01C701B60157D06E
:1060B0006B017C0129D12B013C0152D19B01AC0128
:1060C000C701B6014BD06B017C012AE0B301A201EC
:1060D000CE017DDE080F191FBB2031F060E472E0B5
:1060E000CE0111DE080F191F7B2C772019F120E05B
:1060F00030E040E251E4C701B601E8D16B017C0118
:10610000FED04B01AA2497FCA094BA2C2AE030E0E0
:10611000B501A401CE01B2DE080F191FC501B401FB
:1061200021D19B01AC01C701B60118D06B017C01E4
:106130007A94DBCFC801DF91CF911F910F91FF902F
:10614000EF90DF90CF90BF90AF909F908F907F9017
:106150006F905F904F90089528CF08955058BB27B7
:10616000AA270ED075C166D130F06BD120F031F482
:106170009F3F11F41EF45BC10EF4E095E7FB51C1A3
:10618000E92F77D180F3BA17620773078407950761
:1061900018F071F49EF58FC10EF4E0950B2EBA2F16
:1061A000A02D0B01B90190010C01CA01A00111241D
:1061B000FF27591B99F0593F50F4503E68F11A16C9
:1061C000F040A22F232F342F4427585FF3CF46955A
:1061D00037952795A795F0405395C9F77EF41F167C
:1061E000BA0B620B730B840BBAF09150A1F0FF0F46
:1061F000BB1F661F771F881FC2F70EC0BA0F621F32
:10620000731F841F48F4879577956795B795F79521
:106210009E3F08F0B3CF9395880F08F09927EE0FB3
:10622000979587950895D9D008F481E008950CD00A
:106230000FC107D140F0FED030F021F45F3F19F0DC
:10624000F0C0511139C1F3C014D198F39923C9F3A7
:106250005523B1F3951B550BBB27AA27621773076C
:10626000840738F09F5F5F4F220F331F441FAA1F20
:10627000A9F333D00E2E3AF0E0E830D091505040E0
:10628000E695001CCAF729D0FE2F27D0660F771F8E
:10629000881FBB1F261737074807AB07B0E809F070
:1062A000BB0B802DBF01FF2793585F4F2AF09E3F05
:1062B000510568F0B6C000C15F3FECF3983EDCF3D7
:1062C000869577956795B795F7959F5FC9F7880F7E
:1062D000911D9695879597F90895E1E0660F771FD0
:1062E000881FBB1F621773078407BA0720F0621B61
:1062F000730B840BBA0BEE1F88F7E095089504D05A
:106300006894B111D9C00895BCD088F09F5790F01F
:10631000B92F9927B751A0F0D1F0660F771F881FCA
:10632000991F1AF0BA95C9F712C0B13081F0C3D0E5
:10633000B1E00895C0C0672F782F8827B85F39F083
:10634000B93FCCF3869577956795B395D9F73EF429
:1063500090958095709561957F4F8F4F9F4F0895D1
:10636000E89409C097FB3EF49095809570956195EF
:106370007F4F8F4F9F4F9923A9F0F92F96E9BB27A5
:106380009395F695879577956795B795F111F8CF21
:10639000FAF4BB0F11F460FF1BC06F5F7F4F8F4F8C
:1063A0009F4F16C0882311F096E911C0772321F082
:1063B0009EE8872F762F05C0662371F096E8862F1A
:1063C00070E060E02AF09A95660F771F881FDAF771
:1063D000880F9695879597F90895990F0008550F9E
:1063E000AA0BE0E8FEEF16161706E807F907C0F05B
:1063F00012161306E407F50798F0621B730B840B63
:10640000950B39F40A2661F0232B242B252B21F43C
:1064100008950A2609F4A140A6958FEF811D811DDC
:10642000089597F99F6780E870E060E008959FEF16
:1064300080EC089500240A9416161706180609061B
:10644000089500240A9412161306140605060895EA
:10645000092E0394000C11F4882352F0BB0F40F472
:10646000BF2B11F460FF04C06F5F7F4F8F4F9F4FB2
:10647000089557FD9058440F551F59F05F3F71F034
:106480004795880F97FB991F61F09F3F79F087959B
:106490000895121613061406551FF2CF4695F1DF24
:1064A00008C0161617061806991FF1CF86957105B4
:1064B000610508940895E894BB2766277727CB01E8
:1064C00097F908958ADF08F48FEF08950BD0C0CFB5
:1064D000B1DF28F0B6DF18F0952309F0A2CFA7CFDF
:1064E0001124EACFC6DFA0F3959FD1F3950F50E0BA
:1064F000551F629FF001729FBB27F00DB11D639F76
:10650000AA27F00DB11DAA1F649F6627B00DA11D1B
:10651000661F829F2227B00DA11D621F739FB00DC1
:10652000A11D621F839FA00D611D221F749F332731
:10653000A00D611D231F849F600D211D822F762FCA
:106540006A2F11249F5750408AF0E1F088234AF0C7
:10655000EE0FFF1FBB1F661F771F881F9150504013
:10656000A9F79E3F510570F05CCFA6CF5F3FECF3DB
:10657000983EDCF3869577956795B795F795E795FF
:106580009F5FC1F7FE2B880F911D9695879597F910
:106590000895FA01EE0FFF1F30962105310599F19C
:1065A0006115710561F48038BFE39B0749F1689478
:1065B0009038810561F08038BFEF9B0741F0992347
:1065C00042F5FF3FE1053105210511F1E8940894FA
:1065D000E795D901AA2329F4AB2FBE2FF85FD0F39A
:1065E00010C0FF5F70F4A695E0F7F73950F019F08E
:1065F000FF3A38F49F779F930CD00F9007FC905888
:1066000008953EF014CF60E070E080E89FE30895C5
:106610004FE79F775F934F933F932F93B0D02F9186
:106620003F914F915F9152DF09C0D7DE880B990BE4
:10663000089519F40EF0F5CE3ECFF9CE22DFC8F35F
:106640009638C0F707F80F92E8942BE33AEA48EB44
:106650005FE74ADF0F920F920F924DB75EB70F922E
:10666000CED0E6E1F1E024D04F915F91EF91FF9120
:10667000E595EE1FFF1F49F0FE57E0684427EE0F37
:10668000441FFA95E1F74195550B40D00F9007FE56
:1066900034C008959F3F31F0915020F4879577954D
:1066A0006795B795880F911D9695879597F90895E9
:1066B000DF93CF931F930F93FF92EF92DF927B01B3
:1066C0008C01689405C0DA2EEF010CDFFE01E8941E
:1066D000A5912591359145915591AEF3EF0150DD8E
:1066E000FE019701A801DA9479F7DF90EF90FF900F
:1066F0000F911F91CF91DF9108959B01AC0160E054
:1067000070E080E89FE393CD8CCEC4CFBADEE8F38F
:106710009923D9F3940F511DBBF39150504094F03D
:1067200059F0882332F0660F771F881F9150504030
:10673000C1F79E3F510544F7880F911D96958795A7
:1067400097F908955F3FACF0983E9CF0BB27869583
:1067500077956795B79508F4B1609395C1F7BB0F2E
:1067600058F711F460FFE8CF6F5F7F4F8F4F9F4F57
:10677000E3CFA2CE0EF08ECF5ACE689452CE81DEF9
:10678000C8F39923D1F3C6F3DF93CF931F930F93ED
:10679000FF92C92FDD2788232AF02197660F771FE4
:1067A000881FDAF720E030E040E85FEB9FE38839AC
:1067B00020F0803E30F021968F77D1DCEEE3F1E0DF
:1067C00003C0CDDCEBE6F1E073DF8B01BE01EC0131
:1067D000FB2E6F5771097595771F880B990BC2DDDA
:1067E00028E132E741E35FE37DDEAF2D9801AE01A2
:1067F000FF900F911F91CF91DF91C2DC29CEFA015A
:10680000DC01AA0FBB1F9B01AC01BF5728F4222754
